:020000040800F2
:1000000000800020714A000851450008534500084F
:1000100055450008574500085945000800000000F4
:10002000000000000000000000000000313D00085A
:100030005B45000800000000D13D00085D45000858
:10004000C14A0008C14A0008C14A0008C14A000864
:10005000C14A0008C14A0008C14A0008C14A000854
:10006000C14A0008C14A0008C14A0008C14A000844
:10007000C14A0008C14A0008C14A0008C14A000834
:10008000C14A0008C14A0008C14A0008C14A000824
:10009000C14A0008C14A0008C14A0008C14A000814
:1000A000C14A0008C14A0008C14A0008C14A000804
:1000B000C14A000865450008C14A0008C14A000855
:1000C000C14A0008C14A0008C14A0008C14A0008E4
:1000D000C14A0008C14A0008C14A0008C14A0008D4
:1000E000C14A0008C14A0008C14A0008C14A0008C4
:1000F000C14A0008C14A0008C14A0008C14A0008B4
:10010000000000000000000000000000C14A0008DC
:10011000C14A0008C14A0008C14A0008C14A000893
:10012000C14A0008C14A0008C14A0008C14A000883
:10013000C14A0008C14A0008000000000000000099
:10014000C14A0008C14A0008C14A00080000000076
:10015000000000000000000000000000000000009F
:100160000000000000000000C14A000875450008BA
:10017000C14A00080000000000000000000000006C
:0801800000000000C14A000864
:1001900010B5054C237833B9044B13B10448AFF3C1
:1001A00000800123237010BDC80100200000000062
:1001B000DC4C00080C4B43B10C480D4910B5AFF3B3
:1001C00000800C48036823B910BD0A48036833B99E
:1001D0007047094B002BF7D0BDE810401847064B7D
:1001E000002BF5D0184700BF00000000DC4C0008D1
:1001F000CC010020C80100200000000008B5074A1B
:10020000136843F010031360032000F0EFF80020A0
:1002100004F060F904F0EEF8002008BD0020024070
:10022000034A1168034B1B780B441360704700BFEF
:100230004811002000000020014B1868704700BFE3
:100240004811002038B50446FFF7F6FF0546B4F123
:10025000FF3F02D0044B1B781C44FFF7EDFF401B0F
:100260008442FAD838BD00BF00000020002800F00A
:10027000BB8038B5044690F83D3003B3022384F8C0
:100280003D302268136823F002031360226813686C
:1002900043F001031360FFF7CFFF054623685A6858
:1002A00012F0010F10D1FFF7C7FF401B0A28F5D944
:1002B000032084F83D00002384F83C3038BD80F8EA
:1002C0003C3004F0DFF8D9E75A6812F0010F7CD017
:1002D000A269012A50D01A6822F080021A60E369EC
:1002E000012B4ED02268136823F040031360236A69
:1002F000012B4CD02268136823F020031360636A3B
:10030000012B4AD02268136823F010031360A36AFC
:10031000012B48D02268136823F008031360E36AB6
:10032000012B46D02268136823F004031360216870
:10033000A368E26813432269134362691343626846
:10034000013A1343CB612268136823F00103136061
:10035000FFF772FF054623685A6812F0010F2ED08E
:10036000FFF76AFF401B0A28F5D9032084F83D00F7
:10037000002384F83C3038BD1A6842F080021A60CD
:10038000ADE72268136843F040031360AFE72268CB
:10039000136843F020031360B1E72268136843F049
:1003A00010031360B3E72268136843F00803136077
:1003B000B5E72268136843F004031360B7E75B688E
:1003C00013F0010F08D0002300E0002333B9042309
:1003D00084F83D30012038BD0123F7E70020206478
:1003E000012384F83D3038BD01207047074AD368A7
:1003F00023F4E0631B041B0C000200F4E0601843CC
:1004000040F0BF6040F40030D060704700ED00E085
:1004100030B4164BDB68C3F30223C3F10704042C8A
:1004200028BF04241D1D062D17D9033B012505FAFD
:1004300004F4013C2140994005FA03F3013B1340C9
:10044000194300280BDB0901C9B200F1604000F537
:10045000614080F8001330BC70470023E6E700F0ED
:100460000F000901C9B2024B1954F4E700ED00E096
:1004700014ED00E0420900F01F00012303FA00F030
:10048000014B43F82200704700E100E00138B0F171
:10049000807F0AD2064B5860F021064A82F823106A
:1004A0000020986007221A6070470120704700BF43
:1004B00010E000E000ED00E0042805D0054A1368D4
:1004C00023F0040313607047024A136843F00403E7
:1004D0001360704710E000E0F0B583B000238CE0BB
:1004E000DE08083650F8264003F0070E4FEA8E0E5D
:1004F0000F2707FA0EF724EA07040F6907FA0EF729
:100500003C4340F8264087E086682640CF6807FADB
:100510000EF73E438660466826EA05054E68C6F338
:1005200000169E4035434560C5682C408D6805FA2D
:100530000EF52C43C4604C6814F0805F5CD04A4CCC
:10054000A56945F00105A561A46904F001040194C1
:10055000019C9D08AE1C454C54F8264003F0030650
:10056000B6000F27B74024EA0704B0F1904F70D0CF
:100570003F4FB8426FD007F58067B8426DD007F59E
:100580008067B8426BD007F58067B8425FD0052717
:1005900007FA06F634430235344E46F82540354C0A
:1005A0002568D44305EA04064F6817F4803F01D05C
:1005B00042EA05062F4D2E606D6804EA05064F6875
:1005C00017F4003F01D042EA05062A4D6E60AD687F
:1005D00004EA05064F6817F4801F01D042EA0506B9
:1005E000244DAE60ED682C404E6816F4001F01D01B
:1005F00042EA05041F4AD46001330A6832FA03F460
:100600002FD001259D402A40F6D04C68022C3FF4A3
:1006100067AF122C3FF464AF06684FEA430E032421
:1006200004FA0EF4E44326404F6807F0030707FA84
:100630000EF73E4306604E68771E012F7FF664AFCB
:10064000112E3FF461AF122E7FF46EAF5CE70427EA
:100650009EE700279CE701279AE7022798E70327F0
:1006600096E703B0F0BD00BF00100240000001405B
:1006700000040048000401400AB9816270478161AA
:10068000704700284FD010B5044690F8713323B15D
:10069000032384F87133002214E080F8703304F0EF
:1006A00029F8F5E7D100891A8B002344012183F84A
:1006B000291083F82820002183F82B1059639963AF
:1006C000D963013260688242ECD3002211E0D1008C
:1006D000891A8B002344002183F8CD1183F8CC21A3
:1006E00083F8CF11C3F8D811C3F8DC11C3F8E011B7
:1006F00001328242EBD322680123A2F84030226803
:100700000020A2F840002268A2F844002268A2F863
:10071000500022684FF43F41A2F8401084F82400B2
:1007200084F8713310BD0120704708B5012104F031
:100730003CF9002008BD90F87033012B0FD0012345
:1007400080F8703341B903688022A3F84C2000235D
:1007500080F870331846704780F82410F7E70220BD
:10076000704770B44DB2002D1EDB01F07F06C6EB62
:10077000C606B40004F5E4740444043401F07F01B7
:100780002170ED0F6570E260E37090F87033012B1B
:1007900000F0BD81012380F87033E378032B18D873
:1007A000DFE803F00A80657201F07F06C6EBC6063B
:1007B000B40028340444E1E70268217832F821309B
:1007C0009BB223F4EC4323F0700343F4007322F84C
:1007D00021300168227831F8223023F0F0031B0524
:1007E0001B0D134343F4004343F0800321F82230F0
:1007F000A37A002B40F0BD806378002B60D00368A3
:10080000B3F850202178C90011FA82F203EB4203B9
:10081000A28822F00102A3F800240268217832F8AD
:10082000213013F0400F0BD032F8213023F0F003C9
:100830001B051B0D43F4004343F0C00322F8213095
:100840000268217832F821309BB223F4E04323F090
:10085000400383F0200343F4004343F0800322F875
:100860002130002380F87033184670BC704702684E
:10087000217832F821309BB223F4EC4323F070034B
:100880009BB222F82130A4E70268217832F82130A7
:100890009BB223F4EC4323F0700343F4C06322F8CB
:1008A000213096E70268217832F821309BB223F498
:1008B000EC4323F0700343F4806322F8213088E78F
:1008C0000268B2F850302178C90011FA83F304337A
:1008D00002EB4303A28822F00102A3F8002402687D
:1008E000B2F850302178C90011FA83F3063302EBD5
:1008F0004303E2683E2A31D9C2F34F1112F01F0FB1
:1009000001D1013989B26FEAC1616FEA5141A3F89F
:1009100000140268217832F8213013F4804F0BD094
:1009200032F8213023F0F0031B051B0D43F4404344
:1009300043F0800322F821300268217832F8213018
:100940009BB223F4804323F0700383F4405343F4B9
:10095000004343F0800322F8213082E7C2F34F01C5
:1009600012F0010F01D0013189B28902A3F80014FD
:10097000CFE70268217832F8213023F4F8731B05A1
:100980001B0D43F4014343F0800322F82130036838
:10099000B3F850202178C90011FA82F203EB420328
:1009A000E28822F00102A3F800240268B2F8503075
:1009B0002178C90011FA83F3043302EB430322893F
:1009C00022F00102A3F800246378002B50D10268C2
:1009D000217832F8213013F4804F0BD032F82130D7
:1009E00023F0F0031B051B0D43F4404343F0800349
:1009F00022F821300268217832F8213013F0400FBC
:100A00000BD032F8213023F0F0031B051B0D43F40B
:100A1000004343F0C00322F821300268217832F805
:100A2000213023F0F0031B051B0D43F4004343F07A
:100A3000C00322F821300268217832F821309BB2BD
:100A400023F4804323F0700383F4405348F280057D
:100A50002B4322F821300268217832F821309BB2F2
:100A600023F4E04323F040032B4322F82130F8E63F
:100A70000268217832F8213013F4804F0BD032F81D
:100A8000213023F0F0031B051B0D43F4404343F0DA
:100A9000800322F821300268217832F8213013F0E7
:100AA000400F0BD032F8213023F0F0031B051B0D53
:100AB00043F4004343F0C00322F821300268217858
:100AC00032F8213023F0F0031B051B0D43F44043A3
:100AD00043F0800322F821300368217833F8212085
:100AE00092B222F4E04222F0400248F280052A430A
:100AF00023F821200268217832F821309BB223F4B8
:100B0000804323F070032B4322F82130A9E6022012
:100B1000ABE630B44AB2002A42DB01F07F04C4EBFA
:100B2000C404A30003F5E4730344043301F07F011C
:100B30001970D20F5A7090F87023012A00F0FC80CF
:100B4000012280F870239A7A002A54D15A787AB315
:100B500001681C7831F8242012F0400F0BD031F8D6
:100B6000242022F0F0021205120D42F4004242F05D
:100B7000C00221F824200268197832F821309BB293
:100B800023F4E04323F0400343F4004343F08003A5
:100B900022F82130002380F87033184630BC7047AB
:100BA00001F07F04C4EBC404A30028330344BDE771
:100BB00001681C7831F8242012F4804F0BD031F8F2
:100BC000242022F0F0021205120D42F4404242F0BD
:100BD000800221F824200268197832F821309BB273
:100BE00023F4804323F0700343F4004343F0800375
:100BF00022F82130CEE75A78002A4ED101681C78BD
:100C000031F8242012F4804F0BD031F8242022F048
:100C1000F0021205120D42F4404242F0800221F827
:100C2000242001681C7831F8242012F0400F0BD0EA
:100C300031F8242022F0F0021205120D42F4004295
:100C400042F0C00221F8242001681C7831F82420E9
:100C500022F0F0021205120D42F4004242F0C002EE
:100C600021F8242001681D7831F8252092B222F461
:100C7000804222F0700248F28004224321F82520AD
:100C80000268197832F821309BB223F4E04323F054
:100C90004003234322F821307CE701681C7831F8B7
:100CA000242012F4804F0BD031F8242022F0F002DF
:100CB0001205120D42F4404242F0800221F8242035
:100CC00001681C7831F8242012F0400F0BD031F865
:100CD000242022F0F0021205120D42F4004242F0EC
:100CE000C00221F8242001681C7831F8242022F069
:100CF000F0021205120D42F4404242F0800221F847
:100D0000242001681D7831F8252092B222F4E042B7
:100D100022F0400248F28004224321F82520026894
:100D2000197832F821309BB223F4804323F070030A
:100D3000234322F821302DE702202FE770B401F081
:100D40007F01CD006D1AAC000444C4F8DC21C4F866
:100D5000E0310022C4F8E42184F8CD2184F8CC11DC
:100D6000D4F8D821934245D9C1EBC105AC00044465
:100D70009B1AC4F8E031C1EBC104A300034493F80B
:100D8000D631002B4AD10468B4F85030C1EBC1060B
:100D9000B500054495F8CC51ED0015FA83F3063300
:100DA00004EB43033E2A2ED9C2F34F1412F01F0F57
:100DB00001D1013CA4B26FEAC4646FEA5444A3F8C1
:100DC00000440268C1EBC1018B00184490F8CC11BB
:100DD00032F821309BB223F4804323F0700383F474
:100DE000405343F4004343F0800322F821300020B5
:100DF00070BC7047C1EBC104A20002440024C2F8D9
:100E0000E0411A46B7E7C2F34F0412F0010F01D0D8
:100E10000134A4B2A402A3F80044D2E7C1EBC10498
:100E2000A300034493F8CD314BBB0468B4F85030B1
:100E3000C1EBC106B500054495F8CC51ED0015FA9B
:100E400083F3063304EB43033E2A0DD9C2F34F1458
:100E500012F01F0F01D1013CA4B26FEAC4646FEA23
:100E60005444A3F80044ACE7C2F34F0412F0010F5E
:100E700001D00134A4B2A402A3F80044A1E7012BDD
:100E80009FD10468B4F85030C1EBC106B5000544E9
:100E900095F8CC51ED0015FA83F3063304EB4303C8
:100EA000A3F800248DE701F07F01C1EBC1018B00A5
:100EB0001844B0F8E4017047F8B5054601F07F0426
:100EC000E000001B810029448A63CB6300220A648E
:100ED000012281F8292081F828404F6BBB423CD980
:100EE000DB1BCB63C4EBC4039A002A4492F8323074
:100EF000002B3AD02868C4EBC40293002B4493F82B
:100F0000283030F8233013F0400F44D0C4EBC40233
:100F100093002B441A8EE3001B1B9E002E44BBB291
:100F2000B16B00F03AFC96F82930002B39D0012B38
:100F300046D12A68C4EBC4018B002B4493F82810D7
:100F400032F8213023F0F0031B051B0D43F440431E
:100F500043F0800322F8213032E0C4EBC4018A0060
:100F60002A440021D1631F46BCE7BFB216463B4668
:100F7000928DB16B286800F010FC2A68B2F85030EE
:100F800096F82810C90011FA83F3023302EB4303E9
:100F9000A3F8007414E0C4EBC40293002B44DA8D70
:100FA000B9E72A6896F8281032F8213023F0F003C8
:100FB0001B051B0D43F4004343F0C00322F821300E
:100FC0002A68C4EBC404A3001D4495F8281032F825
:100FD00021309BB223F4E04323F0400383F030033D
:100FE00043F4004343F0800322F821300020F8BD91
:100FF00070B582B005460023ADF80430B1E1038836
:101000009BB223F4E14323F070039BB203802A6870
:10101000B2F8503095F82810C90011FA83F3023362
:1010200002EB4303B3F80034C3F309032B64AA6B48
:101030001344AB630021284603F0A6FB95F8243047
:10104000002B00F08E81EB6B002B40F08A812A6828
:1010500095F8243043F08003A2F84C30002385F843
:1010600024307EE1B0F8503095F8CC21D20012FA4D
:1010700083F3063300EB4303B3F80034C3F30903EF
:10108000C5F8E431B5F8D02105F55D7100F09BFBA2
:101090002A68138823F070031B051B0D1380284654
:1010A00003F05EFB5DE1B5F8D021D5F8DC1100F06E
:1010B0008AFBD5F8E421D5F8DC311344C5F8DC31DE
:1010C0008EE1C2F34F0112F0010F01D0013189B25C
:1010D0008902A3F80014A0E130F824309BB2ADF8E7
:1010E0000430BDF8043013F4004F37D1BDF804309C
:1010F00013F0800F00F035812A6832F824309BB25B
:1011000023F4E14323F070039BB222F82430C4EBB4
:10111000C40293001A462B4493F83230002B40F05F
:10112000C7802868B0F850302A4492F82810C900C7
:1011300011FA83F3023300EB4303B3F80034C3F333
:1011400009031364002B00F0E880E200121B9100F9
:1011500029448A8D896B00F020FBDEE030F82430D2
:1011600023F070031B051B0D20F82430C4EBC402D0
:1011700093001A462B4493F8D631D3B92868B0F8B7
:10118000503011462A4492F8CC21D20012FA83F34F
:10119000063300EB4303B3F80064C6F30906A6B3B5
:1011A00029443346B1F8D021D1F8DC1100F00BFB13
:1011B0002BE02868C4EBC40293002B4493F8CC3195
:1011C00030F8232012F4804F4ED0B0F85020DB00CE
:1011D00013FA82F3023300EB4303B3F80064C6F35F
:1011E0000906AEBB2A68C4EBC4018B002B4493F8FC
:1011F000CC1132F8213023F0F0031B051B0D43F412
:10120000004343F0C00322F82130E200121B930098
:101210002B44D3F8E4213244C3F8E421D3F8DC2191
:101220003244C3F8DC21D3F8E0313BB1C4EBC40055
:1012300081002944D1F8D8118E422FD2C4EBC402C8
:1012400093002B4493F8CC11284603F091FA4DE714
:10125000E3001B1B990029443346B1F8D221D1F891
:10126000DC1100F0B0FABDE7B0F85020DB0013FA53
:1012700082F3063300EB4303B3F80064C6F30906B8
:10128000002EAFD0E3001B1B990029443346B1F870
:10129000D421D1F8DC1100F096FAA3E7C4EBC40026
:1012A0008100294491F8CC112846FFF747FD1DE73E
:1012B0002868C4EBC40293002B4493F8283030F81C
:1012C000232012F0400F00F0BD80B0F85020DB006A
:1012D00013FA82F3023300EB4303B3F80034C3F391
:1012E0000903C4EBC4018A0011462A441364002B8D
:1012F00040F0A2802A68C4EBC4018B002B4493F811
:10130000281032F8213023F0F0031B051B0D43F4A5
:10131000404343F0800322F821302968B1F850207F
:10132000E000001B83002B4493F82800C00010FA53
:1013300082F2023201EB4202B2F80024C2F3090247
:101340001A64996B0A449A63DB6B002B40F095801A
:10135000C4EBC404A3002B4493F82810284603F0E0
:1013600013FA2868B0F844309BB2ADF8063013F495
:10137000004F00F08C80BDF8064014F00F047FF49D
:10138000ABAEBDF8063013F0100F3FF438AE038853
:101390009BB2ADF80430BDF8043013F4006F7FF455
:1013A00061AEBDF8043013F4004FDAD0038823F0A7
:1013B00070031B051B0D03802868B0F8503095F8AA
:1013C000CC21D20012FA83F3063300EB4303B3F8C7
:1013D0000034C3F30903C5F8E431002B7FF463AE96
:1013E0000021284603F0C4F92A68B2F850309BB2B5
:1013F000063302EB4303D5F8D8213E2A7FF661AECF
:10140000C2F34F1112F01F0F01D1013989B26FEAF7
:10141000C1616FEA5141A3F800142A6813889BB296
:1014200023F4804323F0700383F4405343F40043D8
:1014300043F08003138094E72944CA8D896B00F040
:10144000ACF957E7B0F85020DB0013FA82F306330B
:1014500000EB4303B3F80034C3F30903C4EBC40146
:101460008A0011462A441364002B3FF443AF2944F9
:101470000A8E896B00F091F93CE7C4EBC404A1002B
:10148000294491F828102846FFF716FD69E7002047
:1014900002B070BD10B504460368B3F8443013F4CD
:1014A000004F50D12368B3F8442012F4806F4DD11F
:1014B0002368B3F8442012F4804F03D04BF6FF7238
:1014C000A3F844202368B3F8442012F4005F03D04B
:1014D0004DF6FF72A3F844202368B3F8442012F4B9
:1014E000805F3FD12368B3F8442012F4006F19D015
:1014F000B3F8402092B242F00802A3F840202368DB
:101500004FF2FF72A3F844202268B2F840309BB239
:1015100043F00403A2F840302368B3F8443013F4D6
:10152000805F39D02368B3F8442012F4007F37D1AC
:101530002368B3F8442012F4807F03D04FF6FF6293
:10154000A3F8442010BDFFF753FDABE74FF6FF3281
:10155000A3F84420204603F028F900212046FFF795
:10156000EAF8A5E7B3F8402092B222F0040292B262
:10157000A3F840202268B2F840309BB223F0080361
:101580009BB2A2F84030204603F02CF923684EF6B7
:10159000FF72A3F84420A5E7204603F013F9C1E742
:1015A0004FF6FF52A3F84420204603F0F8F8BFE7B7
:1015B00090F87033012B59D010B4012380F87033A8
:1015C0004AB2002A27DBC1EBC104A30003F5E47390
:1015D0000344043301249C7001F07F011970D20F81
:1015E0005A7001BB026832F821309BB223F4804369
:1015F00023F0400383F4805383F0100343F400434B
:1016000043F0800322F82130002380F8703318461D
:101610005DF8044B704701F07F04C4EBC404A300E1
:1016200028330344D6E782B1026832F821309BB2F6
:1016300023F4E04323F0400383F0100343F400431A
:1016400043F0800322F82130DEE7026832F82130CF
:101650009BB223F4804323F0700383F4805343F45C
:10166000004343F0800322F82130CDE70220704789
:1016700010B44AB2002A41DBC1EBC104A30003F558
:10168000E4730344043300249C7001F07F0119705B
:10169000D20F5A7090F87023012A5CD0012280F892
:1016A00070235A7892B301681C7831F8242012F024
:1016B000400F0BD031F8242022F0F0021205120D59
:1016C00042F4004242F0C00221F824200268197856
:1016D00032F821309BB223F4E04323F0400383F03F
:1016E000300343F4004343F0800322F82130002309
:1016F00080F8703318465DF8044B704701F07F04A2
:10170000C4EBC404A30028330344BCE701681C787D
:1017100031F8242012F4804F0BD031F8242022F02D
:10172000F0021205120D42F4404242F0800221F80C
:1017300024200268197832F821309BB223F48043C8
:1017400023F0700383F4405343F4004343F08003D9
:1017500022F82130CBE70220CDE710B411F0800F42
:1017600010D001F07F01C1EBC1018C00283420446E
:1017700082B101228272C3801B0C038100205DF8BC
:10178000044B7047C1EBC1018C0004F5E4742044A4
:101790000430EDE782728380F0E701335B0800EBF1
:1017A000420202F580626BB110B40C78487844EACA
:1017B000002422F8044B0231013B002BF5D15DF8E7
:1017C000044B7047704770B45E0800EB420202F5AC
:1017D000806208E032F8044B0D4605F8024B240AFB
:1017E0004C70013E2946002EF4D113F0010F01D0B8
:1017F00013880B7070BC704770B582B004460368E4
:1018000013F0010F63D0B54B5B6803F00C03042B9E
:1018100046D0B24B5B6803F00C03082B3BD06368E7
:10182000B3F5803F00F08E80002B40F0918003F1F3
:10183000804303F504331A6822F480321A601A6870
:1018400022F480221A60A54AD36A23F00F03A1680C
:101850000B43D3626368002B00F09480FEF7ECFC2E
:1018600005464FF4003393FAA3F39C4B19684FF4E9
:10187000003393FAA3F3B3FA83F303F01F030122B7
:1018800002FA03F3194222D1FEF7D6FC401B64286A
:10189000E7D90320ABE2914B5B6813F4803FBED0E5
:1018A0004FF4003393FAA3F38C4B19684FF40033D1
:1018B00093FAA3F3B3FA83F303F01F03012202FAAE
:1018C00003F3194203D06368002B00F08982236878
:1018D00013F0020F00F09C80804B5B6813F00C0F3C
:1018E00072D07E4B5B6803F00C03082B67D0236932
:1018F000002B00F0CB80012292FAA2F3B3FA83F31B
:1019000003F1845303F584139B001A60FEF794FCE3
:101910000546022393FAA3F3704B1968022393FA46
:10192000A3F3B3FA83F303F01F03012202FA03F3D4
:10193000194240F09C80FEF77FFC401B0228E8D94A
:10194000032054E2654A136843F4803313607AE756
:10195000B3F5A02F09D0614B1A6822F480321A60C7
:101960001A6822F480221A606DE703F18043A3F520
:101970003C331A6842F480221A601A6842F48032BA
:101980001A6060E7FEF758FC05464FF4003393FAFF
:10199000A3F3524B19684FF4003393FAA3F3B3FA4D
:1019A00083F303F01F03012202FA03F319428ED0DE
:1019B000FEF742FC401B6428E7D9032017E2474B9F
:1019C0005B6813F4803F92D1022393FAA3F3434B55
:1019D0001968022393FAA3F3B3FA83F303F01F0306
:1019E000012202FA03F3194204D02369934201D081
:1019F0000120FCE13948036823F0F8036169F8220B
:101A000092FAA2F2B2FA82F201FA02F213430360EE
:101A1000236813F0080F00F08D80A369002B61D0BC
:101A2000012191FAA1F2B2FA82F22D4B13449B00EC
:101A30001960FEF701FC0546022393FAA3F293FA1C
:101A4000A3F293FAA3F2254A516A93FAA3F3B3FAE5
:101A500083F303F01F03012202FA03F3194269D151
:101A6000FEF7EAFB401B0228E6D90320BFE11B4832
:101A7000036823F0F8036169F82292FAA2F2B2FA3D
:101A800082F201FA02F213430360C1E7012393FAE1
:101A9000A3F3B3FA83F303F1845303F584139B0098
:101AA00000221A60FEF7C8FB0546022393FAA3F34F
:101AB0000A4B1968022393FAA3F3B3FA83F303F0F2
:101AC0001F03012202FA03F31942A1D0FEF7B4FB6F
:101AD000401B0228E9D9032089E100BF0010024021
:101AE00020819010012292FAA2F2B2FA82F2C14B46
:101AF00013449B0000221A60FEF79EFB054602235A
:101B000093FAA3F293FAA3F293FAA3F2BA4A516AB0
:101B100093FAA3F3B3FA83F303F01F03012202FA4B
:101B200003F3194206D0FEF787FB401B0228E6D9D3
:101B300003205CE1236813F0040F00F0B380AE4B88
:101B4000DB6913F0805F26D1AB4BDA6942F080523B
:101B5000DA61DB6903F080530193019B0125A74BF8
:101B60001B6813F4807F18D0E368012B29D073BB66
:101B700003F1804303F504331A6A22F001021A626A
:101B80001A6A22F004021A62E368002B5DD0FEF7A5
:101B900053FB064647E00025E1E7984A136843F403
:101BA00080731360FEF748FB0646944B1B6813F4E2
:101BB000807FD9D1FEF740FB801B6428F5D9032034
:101BC00015E18D4A136A43F001031362DCE7052B2C
:101BD00009D0894B1A6A22F001021A621A6A22F0AD
:101BE00004021A62D0E7844B1A6A42F004021A62B5
:101BF0001A6A42F001021A62C6E77F4B196A022391
:101C000093FAA3F3B3FA83F303F01F03012202FA5A
:101C100003F3194245D1FEF70FFB801B41F28833D5
:101C2000984200F2DF80022393FAA3F293FAA3F31F
:101C3000B3FA83F35B0943F00203022BDDD00223E6
:101C400093FAA3F36C4B596AD9E7FEF7F5FA064607
:101C500015E0694B196A022393FAA3F3B3FA83F3ED
:101C600003F01F03012202FA03F3194219D0FEF711
:101C7000E3FA801B41F28833984200F2B5800223D8
:101C800093FAA3F293FAA3F3B3FA83F35B0943F055
:101C90000203022BDDD0022393FAA3F3564B596AB9
:101CA000D9E7B5BBE369002B00F0A080524A526827
:101CB00002F00C02082A00F0A380022B2FD04FF074
:101CC000807393FAA3F3B3FA83F303F1845303F518
:101CD00084139B0000221A60FEF7AEFA04464FF010
:101CE000007393FAA3F3444B19684FF0007393FA0F
:101CF000A3F3B3FA83F303F01F03012202FA03F301
:101D000019426BD0FEF798FA001B0228E7D903208E
:101D10006DE0394AD36923F08053D361C2E74FF0B5
:101D2000807393FAA3F3B3FA83F303F1845303F5B7
:101D300084139B0000221A60FEF77EFA05464FF0DE
:101D4000007393FAA3F32C4B19684FF0007393FAC6
:101D5000A3F3B3FA83F303F01F03012202FA03F3A0
:101D6000194206D0FEF768FA401B0228E7D9032083
:101D70003DE021494B6823F47413626A206A0243F0
:101D800013434B604FF0807393FAA3F3B3FA83F3DA
:101D900003F1845303F584139B0001221A60FEF7BC
:101DA0004BFA04464FF0007393FAA3F3124B1968F1
:101DB0004FF0007393FAA3F3B3FA83F303F01F0316
:101DC000012202FA03F3194206D1FEF735FA001B8D
:101DD0000228E7D903200AE0002008E0002006E0FE
:101DE000012004E0032002E0032000E0002002B014
:101DF00070BD00BF208190100010024000700040B4
:101E00000120F4E7194B5B6803F00C02042A03D0AD
:101E1000082A03D0164870471648704710B403F4D8
:101E200070114FF4701292FAA2F2B2FA82F221FA11
:101E300002F2114CA05C0D4AD26A02F00F020F218F
:101E400091FAA1F1B1FA81F1CA402244127C13F453
:101E5000803F07D0074BB3FBF2F303FB00F05DF8C4
:101E6000044B7047054B03FB00F0F8E700100240FD
:101E700000127A000024F400F44C000800093D0030
:101E8000704B1B6803F007038B420CD26D4A13683A
:101E900023F007030B431360136803F00703994211
:101EA00001D00120704770B5036813F0020F06D00F
:101EB000654A536823F0F0038468234353600D465A
:101EC0000446036813F0010F7AD04368012B2FD02A
:101ED000022B42D0022292FAA2F25B4A106802223E
:101EE00092FAA2F2B2FA82F202F01F02012101FA82
:101EF00002F2104200F0A48053494A6822F0030223
:101F000013434B60FEF798F906466368012B39D0FE
:101F1000022B46D04C4B5B6813F00C0F50D0FEF7F1
:101F20008BF9801B41F288339842F3D9032070BDAE
:101F30004FF4003292FAA2F2434A10684FF4003292
:101F400092FAA2F2B2FA82F202F01F02012101FA21
:101F500002F21042D0D1012070BD4FF0007292FA0F
:101F6000A2F2394A10684FF0007292FAA2F2B2FA65
:101F700082F202F01F02012101FA02F21042BBD1EB
:101F8000012070BD304B5B6803F00C03042B17D0AD
:101F9000FEF752F9801B41F288339842F2D90320B0
:101FA00070BD294B5B6803F00C03082B08D0FEF7CB
:101FB00043F9801B41F288339842F2D9032070BD67
:101FC000204B1B6803F007039D420CD21D4A136887
:101FD00023F007032B431360136803F007039D42AC
:101FE00001D0012070BD236813F0040F06D0164AFB
:101FF000536823F4E063E1680B435360236813F0F4
:10200000080F07D0104A536823F46053216943EA4C
:10201000C1035360FFF7F6FE0B4B5B6803F0F00360
:10202000F02292FAA2F2B2FA82F2D340074AD35CCB
:10203000D840074B1860002002F04CFA002070BD19
:10204000012070BD0020024000100240144D000825
:102050001C010020014B1868704700BF1C010020C4
:1020600008B5FFF7F7FF074B5B6803F4E0634FF435
:10207000E06292FAA2F2B2FA82F2D340024AD35C50
:10208000D84008BD00100240244D00080F23036013
:102090000B4B5A6802F0030242605A6802F0F002E9
:1020A00082605A6802F4E062C2605B68DB0803F495
:1020B000E0630361034B1B6803F007030B60704789
:1020C0000010024000200240F0B583B004460368CF
:1020D00013F4803F48D0934BDB6913F0805F40F0EE
:1020E000D580904BDA6942F08052DA61DB6903F007
:1020F00080530193019B01258B4B1B6813F4807F58
:1021000000F0C680874B1B6A13F4407322D06268CC
:1021100002F4407293421DD08248016A21F4407655
:102120004FF4803393FAA3F2B2FA82F27F4F3A442B
:1021300092004FF0010EC2F800E093FAA3F3B3FA55
:1021400083F33B449B0000221A60066211F0010FEA
:1021500040F0B380734A136A23F4407361680B4301
:102160001362002D40F0D580236813F0010F06D0D4
:102170006C4A136B23F00303A1680B4313632368BA
:1021800013F0020F06D0674A136B23F44033E16863
:102190000B431363236813F0040F06D0614A136BDB
:1021A00023F4402321690B431363236813F0200FAA
:1021B00006D05C4A136B23F01003E1690B431363F1
:1021C000236813F4003F06D0564A536823F4800373
:1021D000A16B0B435360236813F0400F06D0514AA4
:1021E000136B23F02003216A0B431363236813F05E
:1021F000080F06D04B4A136B23F4401361690B435D
:102200001363236813F0100F06D0464A136B23F4B0
:102210004003A1690B431363236813F4007F06D0C6
:10222000404A536823F40003E16A0B435360236878
:1022300013F0800F06D03B4AD36A23F4F873616A27
:102240000B43D362236813F4807F06D0354AD36AE8
:1022500023F47853A16A0B43D362236813F4805F9D
:1022600006D0304A136B23F48073216B0B43136346
:10227000236813F4005F53D02A4A136B23F40073CE
:10228000616B0B431363002003B0F0BD002533E7FF
:10229000254A136843F480731360FDF7CDFF0646AB
:1022A000214B1B6813F4807F7FF42CAFFDF7C4FF34
:1022B000801B6428F4D90320E6E7FDF7BDFF06463E
:1022C00015E0184B196A022393FAA3F3B3FA83F3C8
:1022D00003F01F03012202FA03F319427FF43AAF1D
:1022E000FDF7AAFF801B41F28833984216D80223DB
:1022F00093FAA3F293FAA3F3B3FA83F35B0943F0DF
:102300000203022BDDD0022393FAA3F3054B596A93
:10231000D9E7D36923F08053D36125E70320B3E7DE
:102320000020B1E7001002400070004000819010D2
:1023300070470268D36843F00103D36002681368F2
:1023400043F00103136000207047704770477047E7
:10235000704710B5044603681A6912F0020F11D0D5
:10236000DA6812F0020F0DD06FF002021A61012339
:10237000037703689B6913F0030F79D0FFF7E6FF3B
:102380000023237723681A6912F0040F12D0DA6849
:1023900012F0040F0ED06FF004021A6102232377AB
:1023A00023689B6913F4407F68D02046FFF7CEFF77
:1023B0000023237723681A6912F0080F12D0DA6815
:1023C00012F0080F0ED06FF008021A610423237771
:1023D0002368DB6913F0030F57D02046FFF7B6FFE1
:1023E0000023237723681A6912F0100F12D0DA68DD
:1023F00012F0100F0ED06FF010021A61082323772D
:102400002368DB6913F4407F46D02046FFF79EFF28
:102410000023237723681A6912F0010F03D0DA68CA
:1024200012F0010F3FD123681A6912F0800F03D018
:10243000DA6812F0800F3DD123681A6912F4807FA8
:1024400003D0DA6812F0800F3BD123681A6912F0CA
:10245000400F03D0DA6812F0400F39D123681A69AF
:1024600012F0200F03D0DA6812F0200F37D110BD20
:10247000FFF76BFF2046FFF76AFF81E72046FFF773
:1024800064FF2046FFF763FF92E72046FFF75DFFFA
:102490002046FFF75CFFA3E72046FFF756FF2046E4
:1024A000FFF755FFB4E76FF001021A61204601F013
:1024B000FDFEB8E76FF080021A61204600F08CF84C
:1024C000BAE76FF480721A61204600F086F8BCE724
:1024D0006FF040021A612046FFF73AFFBEE76FF047
:1024E00020021A61204600F076F8C0E703682C4A03
:1024F00090420ED0B0F1804F0BD0A2F594329042B2
:1025000007D002F58062904203D002F596329042E5
:1025100003D123F070034A681343214A90421AD032
:10252000B0F1804F17D0A2F59432904213D002F54B
:10253000806290420FD002F5963290420BD002F5A5
:102540004062904207D002F58062904203D002F5CB
:102550008062904203D123F44073CA68134323F08E
:1025600080034A69134303608B68C3620B6883620C
:102570000B4B98420FD003F5006398420BD003F544
:102580004063984207D003F58063984203D003F577
:102590008063984201D10B69036301234361704753
:1025A000002C0140A8B110B5044690F83D305BB155
:1025B000022384F83D30211D2068FFF797FF012397
:1025C00084F83D30002010BD80F83C30FFF7B0FEAD
:1025D000EEE701207047704770477047D0F8183217
:1025E0001BB10020C3F8140270470220704710B5D9
:1025F000D0F81842D0F81C325BB194F80002FF28E2
:1026000007D09B6894F8012221469847FF2384F85D
:102610000032002010BD00004323038000487047B3
:102620000800002043230380004870474C0000202E
:102630004323038000487047900000200A23038052
:1026400000487047D400002038B50446D0F818522E
:1026500002F0A0F9C5F80C02D4F818324BB1D4F846
:102660001C32DB6805F50371D5F804029847002099
:1026700038BD022038BD000070B505460C46D0F8C4
:1026800018620B7813F0600224D0202A25D1CA8862
:10269000CAB113F0800F0AD14B7886F80032CB888C
:1026A00086F80132CA88314600F090FC15E0D0F877
:1026B0001C329B68314660789847E288314628464C
:1026C00000F06FFC09E0D0F81C329B6800224878CB
:1026D000984702E04B780A2B01D0002070BD012200
:1026E000014900F05EFCF8E7E401002010B5044663
:1026F000812102F0E4F80121204602F0E0F8822175
:10270000204602F0DCF8D4F8183253B1D4F81C3269
:102710005B689847D4F8180202F046F90023C4F821
:102720001832002010BD38B50446037C73BB4FF44B
:1027300000730222812102F0B1F84FF400730222EB
:102740000121204602F0AAF8082303228221204614
:1027500002F0A4F84FF4077002F022F90546C4F81D
:10276000180248B3D4F81C321B6898470023C5F8F8
:102770001432C5F81832237CA3B14023D5F80422C3
:102780000121204602F0F8F8002038BD4023022243
:10279000812102F083F8402302220121204602F029
:1027A0007DF8D1E74FF40073D5F8042201212046CB
:1027B00002F0E2F8002038BD012038BD19B1C0F8A0
:1027C0001C120020704702207047D0F81832C3F85E
:1027D0000812C3F8102200207047D0F81832C3F84E
:1027E000041200207047D0F818228AB108B5D2F838
:1027F00014320BB1012008BD0123C2F81432B2F823
:102800001032D2F80822812102F0A8F8002008BD79
:1028100002207047D0F818229AB108B5037C3BB16A
:102820004023D2F80422012102F0A6F8002008BDBE
:102830004FF40073D2F80422012102F09DF8002029
:1028400008BD0220704798B108B50346D0F81402BD
:1028500010B10020C3F8140209B1C3F810121846D1
:10286000012380F8FC31027001F0C2FF002008BD96
:102870000220704719B1C0F81412002070470220DE
:10288000704708B501F0FCFF002008BD08B5D0F87E
:10289000143223B11B68984718B1022008BD0220EA
:1028A00008BD002008BD08B5D0F814325B68984711
:1028B000002008BD38B5044600F50275284600F032
:1028C0000DF90123C4F8F431B4F80E32C4F8F8312C
:1028D00094F8081201F01F03012B0ED03BB1022B1C
:1028E00010D001F08001204601F0F7FF03E02946F7
:1028F000204600F06DFA002038BD2946204600F041
:102900008BFAF8E72946204600F0A2FAF3E710B563
:10291000044619BB1346D0F8F421032A27D1D0F876
:102920000C11D0F8102191420BD8D0F814321B6949
:102930001BB190F8FC21032A0ED0204600F05DFB6D
:1029400015E0891AC0F80C118A4228BF0A4692B2D3
:10295000194600F04AFB0AE09847EEE70A46D0F82D
:1029600014329B691BB190F8FC11032901D000209F
:1029700010BD11469847FAE710B50446002947D123
:102980001346D0F8F421022A05D094F80032012B26
:102990003AD0002010BDC169026A914217D88169FE
:1029A000B1FBF2F302FB13132BB98A4203D8D0F820
:1029B000F831994218D3D4F81432DB681BB194F87B
:1029C000FC21032A1DD0204600F022FBDDE78A1AF5
:1029D000C26192B2194600F0F1FA00231A46194674
:1029E000204601F0C9FFD0E70022114600F0E6FAC8
:1029F0000021C4F8F8110B460A46204601F0BCFF3E
:102A0000C3E720469847DEE7002384F80032C0E79A
:102A10000A46D0F814325B69002BBAD090F8FC114A
:102A20000329B6D111469847B3E738B50446402389
:102A30000022114601F032FF4025C4F810512B4608
:102A400000228021204601F029FF2562012384F81D
:102A5000FC31D4F818322BB1D4F814325B682179E8
:102A600020469847002038BD01740020704790F838
:102A7000FC3180F8FD31042380F8FC3100207047E0
:102A800090F8FD3180F8FC310020704708B590F8CF
:102A9000FC31032B01D0002008BDD0F81432DB69D3
:102AA000002BF8D09847F6E7002302E00133DBB2B1
:102AB00001300278002AF9D1184670474B88012B63
:102AC00000D0704710B50446C0F80432D0F8143274
:102AD0009B689847204600F090FA10BD0B78037071
:102AE0004B7843708B78CA7803EB022343800B79D1
:102AF0004A7903EB022383808B79CA7903EB0223A3
:102B0000C380704710B50446802101F0E6FE002125
:102B1000204601F0E2FE10BD30B583B004460D46FC
:102B20004A88130A013B062B00F28180DFE803F09C
:102B30000413277F7F637000D0F810321B680DF1FB
:102B40000601007C9847BDF8062012B1EB88002BE7
:102B500071D103B030BD037C43B9D0F814329B6A05
:102B60000DF10600984702234370ECE7D0F81432C9
:102B7000DB6A0DF10600984702234370E3E7D2B207
:102B8000052A34D8DFE802F0030B131B232BD0F8FF
:102B900010325B680DF10601007C9847D3E7D0F84E
:102BA00010329B680DF10601007C9847CBE7D0F806
:102BB0001032DB680DF10601007C9847C3E7D0F8BE
:102BC00010321B690DF10601007C9847BBE7D0F875
:102BD00010325B690DF10601007C9847B3E7D0F82D
:102BE00010329B690DF10601007C9847ABE729463E
:102BF000FFF788FFADE7037C33B9D0F814325B6B85
:102C00000DF1060098479EE72946FFF77BFFA0E7F6
:102C1000037C43B9D0F814321B6B0DF106009847C2
:102C2000072343708FE72946FFF76CFF91E729469A
:102C3000FFF768FF8DE79A4228BF1A46ADF80620D5
:102C40000146204600F0ADF983E738B504468B888D
:102C5000E3B9CB88D3B98D7805F07F0590F8FC31C6
:102C6000032B0CD080F8FE51294601F069FE204666
:102C700000F0C3F935B1022384F8FC3138BDFFF709
:102C800041FF38BD012384F8FC3138BD2046FFF7F1
:102C900039FF38BD38B504460D468978254B197083
:102CA000012909D890F8FC31022B09D0032B1CD044
:102CB0002946FFF727FF38BD2946FFF723FF38BD18
:102CC00081B14160032380F8FC31FFF7DFFD02286A
:102CD00003D0204600F091F938BD29462046FFF781
:102CE00011FF38BD00F089F938BD89B143689942B8
:102CF0001DD0D9B2FFF7D7FD0E4B19786160204681
:102D0000FFF7C4FD02280DD0204600F076F938BD4B
:102D1000022380F8FC314160FFF7C5FD204600F03A
:102D20006CF938BD29462046FFF7ECFE38BD00F0AF
:102D300064F938BDE501002008B5CB88012B08D126
:102D400090F8FC31022B07D0032B0DD0FFF7DAFEF1
:102D500008BDFFF7D7FE08BD0146002341F8083F34
:102D6000012200F01EF908BD0122011D00F019F931
:102D700008BD08B590F8FC31023B012B0CD80123AB
:102D8000C360D0F804320BB10323C360022200F108
:102D90000C0100F006F908BDFFF7B4FE08BD10B540
:102DA000044690F8FC31023B012B0ED84B88012BD6
:102DB00000D010BD0023C0F80432D0F814329B6854
:102DC0009847204600F019F910BDFFF79BFEF0E789
:102DD00008B54B78092B1CD8DFE803F012181B1537
:102DE0001B09051B0F0CFFF797FE002008BDFFF71E
:102DF0002CFFFAE7FFF74EFFF7E7FFF79DFFF4E739
:102E0000FFF7B7FFF1E7FFF759FEEEE7FFF7C7FF60
:102E1000EBE7FFF777FEE8E738B504460D4690F894
:102E2000FC31032B11D10B79012B03D9FFF76AFE7B
:102E3000002038BDD0F814329B689847EB88002BEF
:102E4000F6D1204600F0D9F8F2E7FFF75BFEEFE796
:102E500038B505460C468A880B7803F06003202BB2
:102E600011D0D1B26378012B2BD0002B4DD0032B86
:102E70000DD190F8FC31022B0BD0032B10D0214642
:102E8000FFF740FE03E0D0F814329B68984700201B
:102E900038BD0029FBD08029F9D001F01EFDF6E7EE
:102EA000638823B919B1802901D001F016FDD5F846
:102EB00014329B68214628469847284600F09DF822
:102EC000E5E790F8FC31022B05D0032B0AD0214610
:102ED000FFF718FEDBE70029D9D08029D7D001F011
:102EE000FCFCD4E76388002BD1D111F07F0F03D114
:102EF000284600F082F8CAE701F0FDFCD5F814324C
:102F00009B68214628469847F2E790F8FC31022B4F
:102F100005D0032B09D02146FFF7F4FDB7E711F0E8
:102F20007F0FB4D001F0D9FCB1E712F0800F11D1BE
:102F300001F07F04103400EB04140434284601F03F
:102F4000E8FC70B10123236002222146284600F0EC
:102F500028F89CE701F07F04013400EB04140434EA
:102F6000ECE700232360EFE7D0B170B50D461646BD
:102F70000446FFF799FD0130400080B23080287090
:102F800003236B70022307E05A1CD2B20134E954C8
:102F90000233DBB20021A95421780029F4D170BD9D
:102FA000704710B513460222C0F8F4218361C36153
:102FB0000A46002101F0D2FC002010BD08B51346DE
:102FC0000A46002101F0CAFC002008BD10B51346D6
:102FD0000322C0F8F421C0F80831C0F80C310A46C9
:102FE000002101F0C9FC002010BD08B513460A46B7
:102FF000002101F0C1FC002008BD08B50423C0F881
:10300000F43100231A46194601F0A8FC002008BD3F
:1030100008B50523C0F8F43100231A46194601F01B
:10302000ABFC002008BD08B500F024FE012801D04B
:1030300000F000FF08BD00F1080343604FF0FF32CD
:103040008260C36003610023036070470023036153
:10305000704743684B609A688A609A6851609960CB
:103060000861036801330360704730B40D68B5F13F
:10307000FF3F02D000F1080202E0026904E01A46B4
:1030800053681C68A542FAD253684B6099608A6005
:103090005160086103680133036030BC7047036905
:1030A0004268816891608268416851605A689042C4
:1030B00005D00022026118680138186070478268E4
:1030C0005A60F6E710B5044600F044FEA36B23B146
:1030D000002400F061FE204610BD0124F9E770B520
:1030E00004461646856B026C62B17EB9806801F0B9
:1030F0001DFD226CA3681344A3606268934201D350
:103100002368A3600135A563002070BDC06801F08D
:103110000DFD236C5B42E2681A44E26021688A423A
:1031200002D262681344E360022EEBD1002DE9D095
:10313000013DE7E7026C72B110B50346C468144460
:10314000C4604068844201D31868D8600846D968D2
:1031500001F0ECFC10BD704738B5054600F0FAFDF3
:1031600095F8454064B201E0013C64B2002C0ADDF0
:103170006B6A43B105F1240000F0DEFC0028F3D0B7
:1031800000F070FDF0E7FF2385F8453000F004FE05
:1031900000F0E0FD95F8444064B201E0013C64B207
:1031A000002C0ADD2B6943B105F1100000F0C4FCCE
:1031B0000028F3D000F056FDF0E7FF2385F84430F7
:1031C00000F0EAFD38BD000038B530B304460D46C6
:1031D00000F0C0FD2168E26B236C03FB021060600D
:1031E0000020A063A160013A02FB0313E360FF2308
:1031F00084F8443084F84530C5B92369F3B104F14B
:10320000100000F099FCC8B14FF080520D4B1A60CD
:10321000BFF34F8FBFF36F8F10E04FF0500383F376
:103220001188BFF36F8FBFF34F8FFEE704F11000DB
:10323000FFF701FF04F12400FFF7FDFE00F0ACFDF5
:10324000012038BD04ED00E010B5029B0C4639B1F9
:103250001A60D8631C6401211846FFF7B5FF10BD42
:103260001B60F6E740B94FF0500383F31188BFF3BA
:103270006F8FBFF34F8FFEE7F0B583B0054611B1F6
:1032800001FB00F000E0002017460C46483000F03B
:10329000F3FE064638B100903B4600F14802214655
:1032A0002846FFF7D1FF304603B0F0BD2DE9F843C3
:1032B00060B1044699B10120B8B94FF0500383F3CF
:1032C0001188BFF36F8FBFF34F8FFEE74FF05003AE
:1032D00083F31188BFF36F8FBFF34F8FFEE7006C4E
:1032E00008B90120E8E70020E6E7022B09D068B919
:1032F0004FF0500383F31188BFF36F8FBFF34F8FED
:10330000FEE7E56B012DF2D00020F0E71F46904666
:10331000894600F02FFEEFF311864FF0500383F340
:103320001188BFF36F8FBFF34F8FA26BE36B9A428D
:1033300001D3022F21D194F845506DB23A46494647
:103340002046FFF7CCFEB5F1FF3F10D1636AB3B161
:1033500004F1240000F0F0FB98B1B8F1000F12D096
:103360000120C8F8000086F31188BDE8F8836B1CC3
:103370005BB284F845300120F5E70020F3E7012037
:10338000F1E70120EFE70120EDE700002DE9F04132
:1033900084B0019260B1044699B10125BDB94FF0E6
:1033A000500383F31188BFF36F8FBFF34F8FFEE796
:1033B0004FF0500383F31188BFF36F8FBFF34F8F2C
:1033C000FEE7026C0AB90125E8E70025E6E71F469B
:1033D000884600F04FFC10B9019B03B1002545B9A8
:1033E0004FF0500383F31188BFF36F8FBFF34F8FFC
:1033F000FEE7002645E0E66841462046FFF79AFED4
:10340000B7B9013DA563236963B104F1100000F071
:1034100093FB38B14FF080523E4B1A60BFF34F8F91
:10342000BFF36F8F00F0B8FC012004B0BDE8F0815D
:10343000E660636A002BF5D004F1240000F07CFB09
:103440000028EFD04FF08052324B1A60BFF34F8FFD
:10345000BFF36F8FE6E700F09FFC0020E5E702A8CE
:1034600000F0ACFB012616E0002384F844301EE097
:10347000002384F8453020E02046FFF76DFE00F081
:103480007FFA00F067FCA56B002DB4D1019B002BE7
:10349000E1D0002EE3D000F07FFC00F0D5F900F081
:1034A00059FC94F844305BB2B3F1FF3FDCD094F8A0
:1034B00045305BB2B3F1FF3FDAD000F06DFC01A9FB
:1034C00002A800F08FFBC8B92046FFF7FBFD0028DB
:1034D000D2D0019904F1240000F014FB2046FFF73C
:1034E0003BFE00F04DFA0028CBD14FF08052094B43
:1034F0001A60BFF34F8FBFF36F8FC2E72046FFF70D
:103500002BFE00F03DFA2046FFF7DCFD0028B8D086
:1035100000208AE704ED00E0064B9B6A012BFBD9F3
:103520004FF08052044B1A60BFF34F8FBFF36F8F81
:10353000F2E700BFE801002004ED00E00B4BD3F8F8
:10354000B4301B6853B9012353B9084BD3F8B420E6
:10355000D268D2685268C3F8B82070470023F3E7F6
:103560004FF0FF32014BC3F8B8207047E80100204C
:103570002DE9F84380469946089D099F0A9C266BD1
:1035800002F18042013A06EB820626F0070600238C
:103590000F2B07D8C85CE21882F83400CA5C0AB165
:1035A0000133F5E7002384F84330062D00D90625C2
:1035B000E562201DFFF74AFD04F11800FFF746FD04
:1035C0002461C5F10705A56164620023636484F882
:1035D00048304A464146304600F090FB206007B133
:1035E0003C60BDE8F883000070B5002407E004EB00
:1035F000840293000E481844FFF71DFD0134062C89
:10360000F5D90C4C04F1BC063046FFF714FD04F16B
:10361000D0052846FFF70FFD04F11400FFF70BFD5E
:103620002046FFF708FDC4F8B460C4F8E45070BD4C
:1036300010020020E801002038B5054600F08AFBA2
:10364000264BD3F8E8200132C3F8E820D3F8EC3059
:10365000002B38D0214BD3F8F0304BB91F4BD3F8A7
:10366000EC30DA6AEB6A9A4202D81C4BC3F8EC5091
:103670001A4CD4F8F4300133C4F8F430EB6A012268
:103680009A40D4F8F8100A43C4F8F82004F128004E
:1036900003EB83039A00291D1044FFF7DAFC00F0C6
:1036A0007BFBD4F8F0306BB1D4F8EC30DA6AEB6A1B
:1036B0009A4207D24FF08052094B1A60BFF34F8FE6
:1036C000BFF36F8F38BD054BC3F8EC50D3F8E8302B
:1036D000012BCDD1FFF788FFCAE700BFE80100202A
:1036E00004ED00E070B504460E46204BD3F8FC50C4
:1036F000D3F8EC000430FFF7D2FC60B91B4BD3F8D1
:10370000EC20D16A012202FA01F1D3F8F82022EA72
:103710000102C3F8F820B4F1FF3F15D02C44134B3D
:10372000D3F8EC305C60A54217D8104DD5F8B40042
:10373000D5F8EC100431FFF798FCD5F8B8309C426E
:1037400001D2C5F8B84070BD002EE7D00748D0F8C8
:10375000EC100431FFF77DFC70BD044BD3F8E4009E
:10376000D3F8EC100431FFF780FC70BDE8010020B5
:103770002DE9F04385B006460F4615469846900061
:1037800000F07AFC00B381464C2000F075FC044642
:10379000B0B1C0F83090CCB10023039302940D9BDC
:1037A00001930C9B009343462A4639463046FFF767
:1037B000DFFE2046FFF740FF012005B0BDE8F083A3
:1037C000484600F0DFFCE6E70024E4E74FF0FF3076
:1037D000F3E7000000B583B0174B0193002300937B
:1037E000802216491648FFF7C3FF012805D0B0F123
:1037F000FF3F18D003B05DF804FB4FF0500383F394
:103800001188BFF36F8FBFF34F8F0E4B4FF0FF3216
:10381000C3F8B8200122C3F8F0200022C3F8FC202E
:1038200000F034FBE6E74FF0500383F31188BFF359
:103830006F8FBFF34F8FFEE7EC0200202C4D000886
:1038400019350008E8010020034AD2F8003101339D
:10385000C2F80031704700BFE80100202DE9F041B7
:10386000464BD3F80031002B78D1444BD3F8FC50B1
:103870000135C3F8FC50E5B9D3F8B4301B6843B147
:103880004FF0500383F31188BFF36F8FBFF34F8F57
:10389000FEE73A4BD3F8B420D3F8E410C3F8B410E1
:1038A000C3F8E420D3F808210132C3F80821FFF758
:1038B00045FE324BD3F8B8309D4241D200242F4A06
:1038C000D2F8EC30DB6A03EB830399000A44936A75
:1038D000012B4AD9012448E00124284BD3F8B43005
:1038E0001B687BB300237BBB244BD3F8B430DB686D
:1038F000DE6873689D422DD306F104084046FFF749
:10390000CEFBB36A1BB106F11800FFF7C8FBF36AE0
:1039100001229A40194FD7F8F8100A43C7F8F82047
:1039200007F1280003EB83039A0041461044FFF798
:1039300090FBF26AD7F8EC30DB6A9A42CCD2CCE743
:103940000024CAE70123CEE74FF0FF320B4BC3F848
:10395000B820B4E7094AC2F8B830B0E7074AD2F84D
:103960000C310133C2F80C310024044BD3F8103170
:1039700003B101242046BDE8F08100BFE80100202A
:103980003A4BD3F8003143B94FF0500383F3118819
:10399000BFF36F8FBFF34F8FFEE770B500F0DAF91A
:1039A000324BD3F80021013AC3F80021D3F800319B
:1039B000002B57D12D4BD3F8E83023B9002400F069
:1039C000EBF9204670BD0024284B5B692BB3274DD3
:1039D0002B6ADC6804F11800FFF761FB261D3046F6
:1039E000FFF75DFBE36A01229A40D5F8F8100A431D
:1039F000C5F8F82005F1280003EB83039A0031464F
:103A00001044FFF726FBE26AD5F8EC30DB6A9A42F5
:103A1000DAD30122C5F81021D6E70CB1FFF78EFDED
:103A2000124BD3F80C417CB9104BD3F81031DBB1F9
:103A30004FF080520E4B1A60BFF34F8FBFF36F8F62
:103A40000124BCE7013C08D0FFF708FF0028F9D0AB
:103A50000122064BC3F81021F4E70022034BC3F800
:103A60000C21E1E70024AAE70024A8E7E8010020F0
:103A700004ED00E0224BD3F80031CBB9204A0023FB
:103A8000C2F81031D2F8F830B3FA83F3DBB2C3F1E5
:103A90001F0303EB830081000A44926A6AB94FF066
:103AA000500383F31188BFF36F8FBFF34F8FFEE78F
:103AB0000122134BC3F81021704710B4104A99002B
:103AC000CC18A0001044C46A6468C4622832194447
:103AD000880001460830024494420BD0084903EBA9
:103AE00083039A000A44D36ADB68C1F8EC305DF8BE
:103AF000044B70476068024A0A44D062EEE700BF98
:103B0000E801002040B94FF0500383F31188BFF360
:103B10006F8FBFF34F8FFEE710B50C46054BD3F800
:103B2000EC101831FFF7A1FA01212046FFF7DAFD6A
:103B300010BD00BFE801002038B5C368DC684CB395
:103B400004F118052846FFF7AAFA1A4BD3F80031FA
:103B50004BBB251D2846FFF7A2FAE36A01219940D5
:103B6000144AD2F8F8000143C2F8F810283203EBE7
:103B70008303980029461044FFF76BFAE26A0D4B65
:103B8000D3F8EC30DB6A9A4212D90120094BC3F812
:103B9000100138BD4FF0500383F31188BFF36F8FCE
:103BA000BFF34F8FFEE729460348FFF752FAE5E7D8
:103BB000002038BDE8010020FC01002038B1084A8F
:103BC000D2F808110160D2F8FC20426070474FF033
:103BD000500383F31188BFF36F8FBFF34F8FFEE75E
:103BE000E801002038B5D0B1044609B30D4600F015
:103BF000B1F81B4BD3F8FC102B68B3F1FF3F2BD06F
:103C00002068174AD2F80821904202D06268914297
:103C100024D26268881A834213D8012418E04FF036
:103C2000500383F31188BFF36F8FBFF34F8FFEE70D
:103C30004FF0500383F31188BFF36F8FBFF34F8FA3
:103C4000FEE7521A13442B602046FFF7B7FF00240B
:103C500000F0A2F8204638BD0024F9E70124F7E778
:103C6000E80100200122024BC3F81021704700BF79
:103C7000E8010020064BD3F8F0302BB1044BD3F809
:103C800000311BB9022070470120704700207047A7
:103C9000E80100200B4B1B68B3F1FF3F08D04FF049
:103CA000500383F31188BFF36F8FBFF34F8FFEE78D
:103CB0004FF0500383F31188BFF36F8FBFF34F8F23
:103CC000FEE700BF1801002006480068006880F386
:103CD000088862B661B6BFF34F8FBFF36F8F00DF06
:103CE00000BF000008ED00E0DFF80C00016841F4BF
:103CF000700101607047000088ED00E04FF08073B4
:103D000040F8043C21F0010140F8081C054B40F844
:103D10000C3C40F8202C6FF0020340F8243C44385F
:103D2000704700BF953C0008000000000000000044
:103D3000074B19680868B0E8F04F80F30988BFF3B3
:103D40006F8F4FF0000080F311887047AFF3008051
:103D5000D40200204FF0500383F31188BFF36F8F1C
:103D6000BFF34F8F0A4A136801331360012B0DD143
:103D7000084B1B6813F0FF0F08D04FF0500383F37C
:103D80001188BFF36F8FBFF34F8FFEE7704700BFFF
:103D90001801002004ED00E0094B1B6843B94FF007
:103DA000500383F31188BFF36F8FBFF34F8FFEE78C
:103DB000013B034A13600BB983F31188704700BFBE
:103DC00018010020000000000000000000000000BA
:103DD000EFF30980BFF36F8F154B1A681EF0100FB9
:103DE00008BF20ED108A20E9F04F10604DF8043D27
:103DF0004FF0500080F31188BFF34F8FBFF36F8FE8
:103E0000FFF738FE4FF0000080F3118808BC1968F6
:103E10000868B0E8F04F1EF0100F08BFB0EC108A31
:103E200080F30988BFF36F8F704700BFAFF3008046
:103E3000D402002008B54FF0500383F31188BFF37C
:103E40006F8FBFF34F8FFFF709FD18B14FF080520E
:103E5000024B1A60002383F3118808BD04ED00E0D3
:103E6000064B1B68064AA2FB03239B09013B054A3C
:103E700013600722044B1A60704700BF1C0100202A
:103E8000D34D621014E000E010E000E0314B1A68FE
:103E9000314B9A4219D02F4B1A68304B9A421DD0A1
:103EA00000B583B02E4B1A78D2B20192FF221A705D
:103EB0001B78DBB28DF803309DF8033003F050031C
:103EC000284A1370072353601BE04FF0500383F31D
:103ED0001188BFF36F8FBFF34F8FFEE74FF0500392
:103EE00083F31188BFF36F8FBFF34F8FFEE71D4A37
:103EF0005368013B53609DF803305B00DBB28DF8E3
:103F000003309DF8033013F0800FF0D1154A536849
:103F10001B0203F4E0635360019BDBB2104A137091
:103F2000114B1A6842F470021A601A6842F070422B
:103F30001A60FFF795FF00220C4B1A60FFF7D4FEC2
:103F40000B4A136843F040431360FFF7BDFEFFF7D1
:103F5000A1FE00BF00ED00E071C20F4170C20F4131
:103F600000E400E0FC02002020ED00E01801002049
:103F700034EF00E0EFF305830F2B0FD9104A9B5C61
:103F8000DBB2104A1278934208D24FF0500383F309
:103F90001188BFF36F8FBFF34F8FFEE70A4B1B688B
:103FA00003F4E063074A5268934208D94FF0500384
:103FB00083F31188BFF36F8FBFF34F8FFEE7704716
:103FC000F0E300E0FC0200200CED00E0134A12F0E8
:103FD000070F20D0D11D21F00701C1F54063134424
:103FE0000A460E49C1F8002C0020C1F8040C134405
:103FF000083B23F00703C1F8083C58601860981A82
:1040000050601360C1F80C0CC1F8100C4FF0004365
:10401000C1F8143C70474FF44063E2E7040300200A
:1040200010B4134B1A6882421CD359685C18A04222
:1040300003D1406801445960184641684418A242BF
:1040400014D10C4CD4F8084CA2420DD05268114443
:1040500041601A6812680260984200D018605DF8EA
:10406000044B70471346DDE70460F5E70260F3E7B1
:10407000040F00200403002070B50446FFF7E4FBA2
:104080003F4BD3F8083CC3B13D4BD3F8143C1C4222
:104090006CD1ACB1083414F0070F11D024F0070430
:1040A000083404F007035BB14FF0500383F3118829
:1040B000BFF36F8FBFF34F8FFEE7FFF787FFE3E795
:1040C000002C55D02E4BD3F8103C9C4252D82C4B90
:1040D000D3F8005C03F5406301E02B4615466A689F
:1040E000944202D92A68002AF7D1254AD2F8082C2E
:1040F000954241D01E6808362A681A606B681B1BFF
:10410000102B10D9281910F0070F08D04FF05003CA
:1041100083F31188BFF36F8FBFF34F8FFEE74360C8
:104120006C60FFF77DFF6968154AD2F8103C5B1A96
:10413000C2F8103CD2F80C2C934202D2104AC2F8BA
:104140000C3C0F4BD3F8143C0B436B6000232B60EB
:10415000FFF716FC16F0070F10D04FF0500383F353
:104160001188BFF36F8FBFF34F8FFEE70026EFE795
:104170000026EDE70026EBE70026E9E7304670BDB4
:104180000403002098B338B50446A0F1080550F8A0
:10419000042C1749D1F8141C0A4208D14FF05003DF
:1041A00083F31188BFF36F8FBFF34F8FFEE750F893
:1041B000080C40B14FF0500383F31188BFF36F8FA9
:1041C000BFF34F8FFEE722EA010244F8042CFFF709
:1041D0003BFB54F8041C064AD2F8103C0B44C2F8CE
:1041E000103C2846FFF71CFFFFF7CAFB38BD70479D
:1041F0000403002084B00F4B5A6942F480025A61D4
:104200005A6902F480020192019A5A6942F400321A
:104210005A615A6902F400320292029A5A6942F4CF
:1042200080225A615B6903F480230393039B04B0EB
:10423000704700BF0010024010B586B04FF48054A4
:10424000019401230293022303930323049301A9FE
:104250004FF09040FCF740F9002221464FF090408B
:10426000FCF70AFA4FF47A70FBF7ECFF06B010BDCA
:1042700000B583B0FFF7E0FF00F0B8F900234FF07E
:10428000FF3201A908480068FFF780F8019B5968D0
:10429000186800F019FA019B186800F03FFC0198BB
:1042A00000F03CFCEAE700BF9411002008B502686A
:1042B000034B9A4200D008BDFBF7B2FFFBE700BFFB
:1042C00000040040FEE7000008B50D480D4B0360F8
:1042D000482343604FF0804383600023C360036141
:1042E00043618361C361036243628362C362FBF71C
:1042F000BDFF00B908BD4FF487710348FFF7E2FF27
:104300005011002000640040344D000800B59FB0FB
:10431000012314934FF4A0221592169318930223AD
:104320001B934FF480331C934FF4E0131D9314A898
:10433000FDF762FA50BB0F230F9302211091002367
:1043400011934FF48062129213930FA8FDF798FD1A
:1043500000BB4FF40033009300230E936846FDF733
:10436000B3FED8B9FDF776FE0E4BA3FB00308009F3
:10437000FCF78CF80420FCF79FF800220F214FF087
:10438000FF30FCF745F81FB05DF804FBD821064864
:10439000FFF798FFE6210448FFF794FFED2102485C
:1043A000FFF790FFD34D6210344D000800B583B085
:1043B000FBF724FFFFF7AAFFFFF71CFFFFF784FFBF
:1043C000002204210A20FEF74DFF074B186000234E
:1043D00001930A220092802204490548FFF7C8F998
:1043E000FFF7F8F9FEE700BF94110020444D0008E4
:1043F0007142000800B583B0214B9A6942F0010276
:104400009A619A6902F001020092009ADA6942F018
:104410008052DA61DB6903F080530193019B032032
:10442000FBF7E4FF002211466FF00B00FBF7F0FFF3
:10443000002211466FF00A00FBF7EAFF0022114646
:104440006FF00900FBF7E4FF002211466FF0040053
:10445000FBF7DEFF002211466FF00300FBF7D8FFE9
:1044600000220F216FF00100FBF7D2FF00220F2185
:104470004FF0FF30FBF7CCFF03B05DF804FB00BF4B
:10448000001002400268114B9A4200D0704700B5FC
:1044900087B003F5D633DA6942F00072DA61DB697E
:1044A00003F000730093009B4FF4407301930223C9
:1044B000029300230393032304930923059301A983
:1044C0000348FCF709F807B05DF804FB00640040FE
:1044D0000004004800B589B0002201461D20FBF70A
:1044E00097FF1D20FBF7C6FF154BDA6942F0020269
:1044F000DA61DB6903F002030193019B02A903A8BF
:10450000FDF7C4FDFDF7ACFD43000E48A0FB0323FF
:104510009B0C013B0C480D4A026040F2E732C2603E
:104520004360002303618360FEF73CF818B101206B
:1045300009B05DF804FB0448FDF7FBFEF8E700BF97
:104540000010024083DE1B4398110020000400404D
:104550007047FEE7FEE7FEE7FEE7704708B5FEF7A7
:1045600062FD08BD08B50248FDF7F3FE08BD00BFB7
:104570009811002008B50248FCF78CFF08BD00BF69
:10458000CC1B00201549D1F8883043F47003C1F8E2
:104590008830134B1A6842F001021A605868114AB9
:1045A00002405A601A6822F0847222F480321A6043
:1045B0001A6822F480221A605A6822F4FE025A60B5
:1045C000DA6A22F00F02DA62186B074A02401A63B5
:1045D00000229A604FF000638B60704700ED00E0AE
:1045E000001002400CC07FF8CCFC00FF10B5094C55
:1045F000002209492046FEF726F908492046FEF721
:1046000039F907492046FEF7D9F82046FEF739F96F
:1046100010BD00BFD811002048010020E00000209C
:1046200020010020002070470020704770B582B044
:1046300005460C46174E01463046FEF7CEF830468A
:10464000FEF7E8F800230193082000F05FFA064621
:104650000090206800F05AFA306022682946009BDA
:10466000186800F063FA2268009B5A60012301AACF
:10467000694609480068FEF719FE019B3BB14FF0FF
:104680008052064B1A60BFF34F8FBFF36F8F02B09B
:1046900070BD00BFD81100209411002004ED00E08F
:1046A00010B5064C002206492046FEF78EF8054953
:1046B0002046FEF792F8002010BD00BFD811002060
:1046C000E4170020FC130020094BD3F81832D3F86C
:1046D00014320BB10120704710B50A460146044C54
:1046E0002046FEF772F82046FEF77DF810BD00BFA9
:1046F000D81100200268174B9A4200D0704710B5BD
:1047000086B04FF4C0530193022302930024039414
:10471000032304930E23059301A94FF09040FBF768
:10472000DBFE0D4BDA6942F40002DA61DB6903F467
:1047300000030093009B094A136843F020031360B1
:10474000224606214B20FBF763FE4B20FBF792FE2F
:1047500006B010BD005C00400010024000000140A7
:1047600008B500F55D71D0F8A403FEF7A3F808BD05
:1047700008B5C1EBC10293000344D3F8DC21D0F8A3
:10478000A403FEF7C4F808BD08B5C1EBC10293004D
:1047900003449A6BD0F8A403FEF7EEF808BD08B501
:1047A000D0F8A403FEF772F908BD10B50446012144
:1047B000D0F8A403FEF758F9D4F8A403FEF735F9AE
:1047C00010BD000010B50446D0F8A403FEF74FF961
:1047D000A36923B1024A136943F00603136110BDB4
:1047E00000ED00E008B5D0F8A403FEF749F908BDD4
:1047F00010B504461F48C0F8A443C4F820021E4B5D
:10480000036008234360022282600023C3600261C8
:1048100083610362FBF735FF30BB1823002211468A
:10482000D4F82002FCF799FF582300228021D4F805
:104830002002FCF792FFC02300228121D4F820023D
:10484000FCF78BFF4FF4887300220121D4F820027B
:10485000FCF783FF4FF4807300228221D4F82002FA
:10486000FCF77BFF002010BD40F241110348FFF729
:1048700029FDD2E7CC1B0020005C0040504D000811
:1048800008B5D0F82002FBF750FF18B1022803D07A
:10489000022008BD002008BD012008BD10B51C463F
:1048A00013462246D0F82002FBF75BFF18B102281E
:1048B00003D0022010BD002010BD012010BD08B59E
:1048C000D0F82002FCF725F918B1022803D0022005
:1048D00008BD002008BD012008BD08B5D0F82002A1
:1048E000FCF766FE18B1022803D0022008BD0020A4
:1048F00008BD012008BD08B5D0F82002FCF7B8FEBD
:1049000018B1022803D0022008BD002008BD0120F4
:1049100008BDD0F8203211F0800F08D101F07F01DE
:10492000C1EBC1018A00134493F8CE01704701F036
:104930007F01C1EBC1018A00134493F82A0070473C
:1049400008B5D0F82002FBF7F6FE18B1022803D014
:10495000022008BD002008BD012008BD08B5D0F820
:104960002002FCF7A9FA18B1022803D0022008BDE2
:10497000002008BD012008BD08B5D0F82002FCF7D2
:10498000DDF918B1022803D0022008BD002008BDBF
:10499000012008BD08B5D0F82002FCF784FA08BD54
:1049A000004870471C0F00207047704712230B808F
:1049B000004870473001002004230B8000487047F6
:1049C0004401002008B50A4628B105490548FEF70C
:1049D000CBFA034808BD02490248FEF7C5FAF8E7DA
:1049E000741F0020644D000810B5044C0A4621468F
:1049F0000348FEF7B9FA204610BD00BF741F00201F
:104A00006C4D000808B50A4628B105490548FEF76F
:104A1000ABFA034808BD02490248FEF7A5FAF8E7D9
:104A2000741F0020804D000808B50A4628B10549CA
:104A30000548FEF799FA034808BD02490248FEF707
:104A400093FAF8E7741F0020904D000808B50A4655
:104A500028B105490548FEF787FA034808BD024911
:104A60000248FEF781FAF8E7741F00209C4D000809
:104A7000DFF834D0002103E00C4B5B584350043185
:104A80000B480C4B42189A42F6D30B4A02E0002323
:104A900042F8043B094B9A42F9D3FFF773FD00F04B
:104AA00011F8FFF783FCFEE700800020B44D0008FA
:104AB00000000020C8010020C8010020782100204B
:104AC000FEE7000070B50D4E0D4CA41BA410002590
:104AD000A54209D10B4E0C4C00F000F9A41BA41008
:104AE0000025A54205D170BD56F8253098470135FF
:104AF000EEE756F8253098470135F2E7AC4D00084F
:104B0000AC4D0008AC4D0008B04D0008024B01460A
:104B1000186800F065B800BF64010020024B014630
:104B2000186800F00FB800BF6401002010B5431EE4
:104B30000A44914200D110BD11F8014B03F8014F16
:104B4000F7E7000038B50546002945D051F8043C88
:104B50000C1F002BB8BFE41800F0B0F81F4A136810
:104B6000104633B9636014602846BDE8384000F051
:104B7000A6B8A3420CD921686218934204BF1A68F0
:104B80005B68636004BF521822600460ECE7134660
:104B90005A680AB1A242FAD919685818A0420BD132
:104BA00020680144581882421960DDD110685268AB
:104BB0005A6001441960D7E702D90C232B60D3E770
:104BC000206821188A4204BF11685268626004BFDD
:104BD000091821605C60C7E738BD00BF3C110020A8
:104BE00070B5CD1C25F0030508350C2D38BF0C25FC
:104BF000002D064601DBA94203D90C2333600020B7
:104C000070BD00F05BF8234A1468214691B9224C2C
:104C100023681BB9304600F041F820602946304631
:104C200000F03CF8431C26D10C233360304600F0E2
:104C300046F8E4E70B685B1B1AD40B2B0FD90B600B
:104C4000CD50CC18304600F03AF804F10B00231D8B
:104C500020F00700C31A1BD05A42E25070BD8C42AC
:104C60000DBF63684B686360136018BF0C46E9E7CB
:104C70000C464968CAE7C41C24F00304A04205D0CE
:104C8000211A304600F00AF80130CDD02560D9E76E
:104C900070BD00BF3C1100204011002038B5064C0B
:104CA000002305460846236000F00AF8431C02D1A1
:104CB000236803B12B6038BD742100207047704712
:104CC000044A05491368002B08BF0B4618441060BE
:104CD000184670474411002078210020F8B500BF25
:104CE000F8BC08BC9E467047F8B500BFF8BC08BCCD
:044CF0009E46704725
:104CF40002030405060708090A0B0C0D0E0F101019
:104D04000102030405060708090A0B0C0D0E0F1017
:104D14000000000000000000010203040607080967
:104D2400000000000102030449444C450000000057
:104D34002E2E2F5372632F6D61696E2E6300000057
:104D44006D61696E5F7461736B0000002E2E2F53CA
:104D540072632F757362645F636F6E662E63000007
:104D64004F70656E43414E0053544D6963726F65D5
:104D74006C656374726F6E69637300003030303039
:104D840030303030303031410000000043444320A3
:104D9400436F6E666967000043444320496E74653F
:084DA400726661636500000006
:044DAC00B501000845
:044DB0009101000865
:104DB400010000001000000009024300020100C0CD
:104DC400320904000001020201000524001001055B
:104DD40024010001042402020524060001070582BF
:104DE4000308001009040100020A0000000705017D
:104DF4000240000007058102400000000902430050
:104E0400020100C03209040000010202010005246D
:104E140000100105240100010424020205240600F7
:104E2400010705820308001009040100020A0000BA
:104E340000070501020002000705810200020000CC
:104E440009074300020104C0320904000001020200
:104E540001000524001001052401000104240202BC
:104E64000524060001070582030800FF0904010068
:104E7400020A000000070501024000000705810244
:104E8400400000000A06000200000040010000008B
:104E940027270008ED2600087926000800000000F6
:104EA400EF250008DD250008492600080000000061
:104EB4000000000000000000252600081926000854
:104EC400312600083D260008AAAAAAAA00127A00E0
:104ED400A146000825460008294600082D4600087A
:104EE4001201000202020040830440570002010242
:104EF4000301000004030904AD490008B94900088E
:104F0400E9490008C5490008054A0008294A00087B
:104F14004D4A000868010020000000000000000065
:104F2400000000000000000000000000000000007D
:104F3400000000000000000000000000000000006D
:104F4400000000000000000000000000000000005D
:104F5400000000000000000000000000000000004D
:104F6400000000000000000000000000000000003D
:084F7400000000000000000035
:0400000508004A7134
:00000001FF
