:020000040800F2
:1000000000800020C9650008BD530008BF530008E8
:10001000C1530008C3530008C55300080000000086
:10002000000000000000000000000000614A00081D
:10003000C753000800000000014B0008C953000826
:100040001966000819660008196600081966000894
:100050001966000819660008196600081966000884
:100060001966000819660008196600081966000874
:100070001966000819660008196600081966000864
:100080001966000819660008196600081966000854
:100090001966000819660008196600081966000844
:1000A0001966000819660008196600081966000834
:1000B00019660008D153000819660008196600087F
:1000C0001966000819660008196600081966000814
:1000D0001966000819660008196600081966000804
:1000E00019660008196600081966000819660008F4
:1000F00019660008196600081966000819660008E4
:100100000000000000000000000000001966000868
:1001100019660008196600081966000819660008C3
:1001200019660008196600081966000819660008B3
:1001300019660008196600080000000000000000B1
:10014000196600081966000819660008000000001A
:10015000000000000000000000000000000000009F
:10016000000000000000000019660008E1530008CC
:1001700019660008000000000000000000000000F8
:080180000000000019660008F0
:1001900010B5054C237833B9044B13B10448AFF3C1
:1001A00000800123237010BD7401002000000000B6
:1001B0008C6600080C4B43B10C480D4910B5AFF3E9
:1001C00000800C48036823B910BD0A48036833B99E
:1001D0007047094B002BF7D0BDE810401847064B7D
:1001E000002BF5D0184700BF000000008C66000807
:1001F00078010020740100200000000008B5074AC3
:10020000136843F010031360032000F009FB002083
:1002100005F096F805F024F8002008BD0020024003
:10022000034A1168034B1B780B441360704700BFEF
:10023000A011002000000020014B1868704700BF8B
:10024000A011002038B50446FFF7F6FF0546B4F1CB
:10025000FF3F02D0044B1B781C44FFF7EDFF401B0F
:100260008442FAD838BD00BF00000020F0B44B69CA
:10027000012202FA03F30468D4F8002242F00102DA
:10028000C4F800220568D5F81C42DA431440C5F8CA
:100290001C42CC69C4B90568D5F80C421440C5F8B5
:1002A0000C4206684C69CF688D8845EA074548349A
:1002B00046F8345004684E698F680D8845EA074552
:1002C000483604EBC6046560CC69012C1ED08C69ED
:1002D000002C35D10568D5F804421440C5F8044215
:1002E0000C69002C33D10468D4F814522A40C4F8A5
:1002F00014220A6A012A31D00268D2F8003223F0AF
:100300000103C2F800320020F0BC70470568D5F840
:100310000C421C43C5F80C4206684C690F688D8876
:1003200045EA0745483446F8345004684E698F68FA
:100330008D8945EA0745483604EBC6046560C6E783
:100340000568D5F804421C43C5F80442C8E70468B0
:10035000D4F814221A43C4F81422CAE70268D2F867
:100360001C120B43C2F81C32C6E7002800F0BB8009
:1003700038B5044690F83D3003B3022384F83D308D
:100380002268136823F0020313602268136843F0A5
:1003900001031360FFF750FF054623685A6812F007
:1003A000010F10D1FFF748FF401B0A28F5D90320A1
:1003B00084F83D00002384F83C3038BD80F83C30A0
:1003C00004F096FFD9E75A6812F0010F7CD0A269B9
:1003D000012A50D01A6822F080021A60E369012BCA
:1003E0004ED02268136823F040031360236A012B68
:1003F0004CD02268136823F020031360636A012B3A
:100400004AD02268136823F010031360A36A012BFB
:1004100048D02268136823F008031360E36A012BB5
:1004200046D02268136823F0040313602168A36890
:10043000E268134322691343626913436268013A15
:100440001343CB612268136823F001031360FFF7A5
:10045000F3FE054623685A6812F0010F2ED0FFF70D
:10046000EBFE401B0A28F5D9032084F83D00002349
:1004700084F83C3038BD1A6842F080021A60ADE75B
:100480002268136843F040031360AFE722681368E3
:1004900043F020031360B1E72268136843F01003B0
:1004A0001360B3E72268136843F008031360B5E7ED
:1004B0002268136843F004031360B7E75B6813F026
:1004C000010F08D0002300E0002333B9042384F88F
:1004D0003D30012038BD0123F7E7002020640123CF
:1004E00084F83D3038BD012070470000F8B503683E
:1004F0009A6812F0806F08D19A6812F0006F04D1E8
:100500009A6812F0805F00F0F08090F83C20012A99
:1005100000F0F080012280F83C2090F83D20D2B21B
:10052000322A14D0622A16D0222A03D0122280F84E
:100530003D2002E0422280F83D209A6812F0806F50
:100540000DD19A6812F0006F61D0012508E05222A7
:1005500080F83D20F1E7722280F83D20EDE700258C
:1005600005F1180212019C5804F001049C50026B22
:100570009368002B4DD1066805F118031B01F45850
:100580001768D26842EA47522243F2500E460446A8
:10059000026B136903F00F031361036805F118017F
:1005A00009010B445A6822F00F025A6003680B4499
:1005B0005A68006B006902435A602268206BC77D4D
:1005C000837D1B0443EA0763477D43EA0723007DDD
:1005D00003432F013A44C2F888312268206B90F817
:1005E0001BE0837E1B0443EA0E6390F819E043EAA4
:1005F0000E23007E03433A44C2F88C3122685358DC
:1006000043F001035350FFF717FE07463FE0022572
:10061000A6E7076805F11804240157F804E05668B6
:1006200043EAC603D268134343EA0E033B51ADE7E6
:1006300026B1FFF701FEC01B864228D2032384F8AF
:100640003D304DB92268936843F0800393600023E6
:1006500084F83C300320F8BD012D05D02268936852
:1006600043F400039360F2E72268936843F4004385
:100670009360ECE7012D14D023689A681E4B9343D6
:1006800014BF01230023A3B1B6F1FF3FD0D1002D49
:10069000F0D123689A68194B934314BF01230023B8
:1006A000F1E723689A68164B934314BF0123002394
:1006B000E9E794F83D30DBB2522B0ED0722B10D00C
:1006C000422B03D0012384F83D3002E0222384F83A
:1006D0003D30002084F83C00F8BD322384F83D30E2
:1006E000F7E7622384F83D30F3E7042380F83D30D8
:1006F0000120F8BD0220F8BD000001100100000437
:100700000001000890F83C30012B00F086800123A6
:1007100080F83C3099B990F83D30DBB2222B20D0E4
:1007200090F83D30DBB2422B1BD090F83D30DBB26D
:10073000622B16D090F83D30DBB2722B11D001291C
:1007400014D010B4002948D190F83D30DBB2322BE0
:100750003BD0522B3DD0122B21D0222380F83D30AC
:1007600020E0002380F83C300220704790F83D30B4
:10077000DBB2322B0ED090F83D30DBB2522B09D0D9
:1007800090F83D30DBB2622B04D090F83D30DBB204
:10079000722BD6D1002380F83C30022070474223D0
:1007A00080F83D30002202640468636943F40F431B
:1007B000636180F83C2049B30268536943F05003F9
:1007C000536100205DF8044B7047622380F83D3090
:1007D000E8E7722380F83D30E4E790F83D30DBB283
:1007E000222B0BD0422B0DD0122B03D0322380F8BA
:1007F0003D30D7E7522380F83D30D3E7622380F8BD
:100800003D30CFE7722380F83D30CBE70268536973
:1008100043F00A0353610020D4E702207047000030
:10082000074AD36823F4E0631B041B0C000200F4A6
:10083000E060184340F0BF6040F40030D060704783
:1008400000ED00E030B4164BDB68C3F30223C3F1C4
:100850000704042C28BF04241D1D062D17D9033BB3
:10086000012505FA04F4013C2140994005FA03F3FF
:10087000013B1340194300280BDB0901C9B200F109
:10088000604000F5614080F8001330BC70470023E1
:10089000E6E700F00F000901C9B2024B1954F4E772
:1008A00000ED00E014ED00E0420900F01F0001231C
:1008B00003FA00F0014B43F82200704700E100E02A
:1008C0000138B0F1807F0AD2064B5860F021064A09
:1008D00082F823100020986007221A6070470120D8
:1008E000704700BF10E000E000ED00E0042805D0F4
:1008F000054A136823F0040313607047024A136823
:1009000043F004031360704710E000E0F0B583B0DB
:1009100000238CE0DE08083650F8264003F0070E6E
:100920004FEA8E0E0F2707FA0EF724EA07040F6925
:1009300007FA0EF73C4340F8264087E086682640D9
:10094000CF6807FA0EF73E438660466826EA05053B
:100950004E68C6F300169E4035434560C5682C407E
:100960008D6805FA0EF52C43C4604C6814F0805F66
:100970005CD04A4CA56945F00105A561A46904F065
:1009800001040194019C9D08AE1C454C54F826407E
:1009900003F00306B6000F27B74024EA0704B0F1BE
:1009A000904F70D03F4FB8426FD007F58067B84284
:1009B0006DD007F58067B8426BD007F58067B84205
:1009C0005FD0052707FA06F634430235344E46F861
:1009D0002540354C2568D44305EA04064F6817F4D2
:1009E000803F01D042EA05062F4D2E606D6804EA73
:1009F00005064F6817F4003F01D042EA05062A4D6C
:100A00006E60AD6804EA05064F6817F4801F01D0D8
:100A100042EA0506244DAE60ED682C404E6816F49F
:100A2000001F01D042EA05041F4AD46001330A685E
:100A300032FA03F42FD001259D402A40F6D04C68AD
:100A4000022C3FF467AF122C3FF464AF06684FEA04
:100A5000430E032404FA0EF4E44326404F6807F0E3
:100A6000030707FA0EF73E4306604E68771E012F14
:100A70007FF664AF112E3FF461AF122E7FF46EAF9C
:100A80005CE704279EE700279CE701279AE70227F7
:100A900098E7032796E703B0F0BD00BF00100240BF
:100AA0000000014000040048000401400AB98162CE
:100AB00070478161704700284FD010B5044690F808
:100AC000713323B1032384F87133002214E080F8DA
:100AD000703304F04FFDF5E7D100891A8B002344F1
:100AE000012183F8291083F82820002183F82B1096
:100AF00059639963D963013260688242ECD3002262
:100B000011E0D100891A8B002344002183F8CD1114
:100B100083F8CC2183F8CF11C3F8D811C3F8DC11C6
:100B2000C3F8E01101328242EBD322680123A2F81C
:100B3000403022680020A2F840002268A2F8440059
:100B40002268A2F8500022684FF43F41A2F84010FA
:100B500084F8240084F8713310BD0120704708B573
:100B6000012104F062FE002008BD90F87033012BD3
:100B70000FD0012380F8703341B903688022A3F8B5
:100B80004C20002380F870331846704780F82410FA
:100B9000F7E70220704770B44DB2002D1EDB01F064
:100BA0007F06C6EBC606B40004F5E47404440434BE
:100BB00001F07F012170ED0F6570E260E37090F845
:100BC0007033012B00F0BD81012380F87033E3788E
:100BD000032B18D8DFE803F00A80657201F07F0666
:100BE000C6EBC606B40028340444E1E70268217865
:100BF00032F821309BB223F4EC4323F0700343F42A
:100C0000007322F821300168227831F8223023F075
:100C1000F0031B051B0D134343F4004343F0800313
:100C200021F82230A37A002B40F0BD806378002B9E
:100C300060D00368B3F850202178C90011FA82F21D
:100C400003EB4203A28822F00102A3F80024026809
:100C5000217832F8213013F0400F0BD032F82130D8
:100C600023F0F0031B051B0D43F4004343F0C003C6
:100C700022F821300268217832F821309BB223F427
:100C8000E04323F0400383F0200343F4004343F0A8
:100C9000800322F82130002380F87033184670BC9E
:100CA00070470268217832F821309BB223F4EC437C
:100CB00023F070039BB222F82130A4E70268217868
:100CC00032F821309BB223F4EC4323F0700343F459
:100CD000C06322F8213096E70268217832F821308B
:100CE0009BB223F4EC4323F0700343F4806322F8B7
:100CF000213088E70268B2F850302178C90011FA33
:100D000083F3043302EB4303A28822F00102A3F829
:100D100000240268B2F850302178C90011FA83F338
:100D2000063302EB4303E2683E2A31D9C2F34F1186
:100D300012F01F0F01D1013989B26FEAC1616FEA68
:100D40005141A3F800140268217832F8213013F4DD
:100D5000804F0BD032F8213023F0F0031B051B0D20
:100D600043F4404343F0800322F8213002682178A5
:100D700032F821309BB223F4804323F0700383F4D4
:100D8000405343F4004343F0800322F8213082E7CC
:100D9000C2F34F0112F0010F01D0013189B2890273
:100DA000A3F80014CFE70268217832F8213023F449
:100DB000F8731B051B0D43F4014343F0800322F835
:100DC00021300368B3F850202178C90011FA82F26B
:100DD00003EB4203E28822F00102A3F80024026838
:100DE000B2F850302178C90011FA83F3043302EBD2
:100DF0004303228922F00102A3F800246378002B28
:100E000050D10268217832F8213013F4804F0BD092
:100E100032F8213023F0F0031B051B0D43F440434F
:100E200043F0800322F821300268217832F8213023
:100E300013F0400F0BD032F8213023F0F0031B05E4
:100E40001B0D43F4004343F0C00322F82130026835
:100E5000217832F8213023F0F0031B051B0D43F4F9
:100E6000004343F0C00322F821300268217832F8B1
:100E700021309BB223F4804323F0700383F440536A
:100E800048F280052B4322F821300268217832F89D
:100E900021309BB223F4E04323F040032B4322F89C
:100EA0002130F8E60268217832F8213013F4804FBF
:100EB0000BD032F8213023F0F0031B051B0D43F457
:100EC000404343F0800322F821300268217832F851
:100ED000213013F0400F0BD032F8213023F0F00313
:100EE0001B051B0D43F4004343F0C00322F82130DF
:100EF0000268217832F8213023F0F0031B051B0D26
:100F000043F4404343F0800322F821300368217802
:100F100033F8212092B222F4E04222F0400248F25B
:100F200080052A4323F821200268217832F82130F5
:100F30009BB223F4804323F070032B4322F821302B
:100F4000A9E60220ABE630B44AB2002A42DB01F047
:100F50007F04C4EBC404A30003F5E4730344043327
:100F600001F07F011970D20F5A7090F87023012A96
:100F700000F0FC80012280F870239A7A002A54D174
:100F80005A787AB301681C7831F8242012F0400FA7
:100F90000BD031F8242022F0F0021205120D42F499
:100FA000004242F0C00221F824200268197832F889
:100FB00021309BB223F4E04323F0400343F4004389
:100FC00043F0800322F82130002380F87033184664
:100FD00030BC704701F07F04C4EBC404A300283385
:100FE0000344BDE701681C7831F8242012F4804FD7
:100FF0000BD031F8242022F0F0021205120D42F439
:10100000404242F0800221F824200268197832F828
:1010100021309BB223F4804323F0700343F4004358
:1010200043F0800322F82130CEE75A78002A4ED1CF
:1010300001681C7831F8242012F4804F0BD031F86D
:10104000242022F0F0021205120D42F4404242F038
:10105000800221F8242001681C7831F8242012F045
:10106000400F0BD031F8242022F0F0021205120DAF
:1010700042F4004242F0C00221F8242001681C78AA
:1010800031F8242022F0F0021205120D42F4004241
:1010900042F0C00221F8242001681D7831F8252093
:1010A00092B222F4804222F0700248F2800422437D
:1010B00021F825200268197832F821309BB223F4F8
:1010C000E04323F04003234322F821307CE701680A
:1010D0001C7831F8242012F4804F0BD031F82420F2
:1010E00022F0F0021205120D42F4404242F080025A
:1010F00021F8242001681C7831F8242012F0400FD8
:101100000BD031F8242022F0F0021205120D42F427
:10111000004242F0C00221F8242001681C7831F816
:10112000242022F0F0021205120D42F4404242F057
:10113000800221F8242001681D7831F8252092B220
:1011400022F4E04222F0400248F28004224321F8D7
:1011500025200268197832F821309BB223F48043AD
:1011600023F07003234322F821302DE702202FE7DC
:1011700070B401F07F01CD006D1AAC000444C4F8D6
:10118000DC21C4F8E0310022C4F8E42184F8CD2148
:1011900084F8CC11D4F8D821934245D9C1EBC105CC
:1011A000AC0004449B1AC4F8E031C1EBC104A300B5
:1011B000034493F8D631002B4AD10468B4F8503078
:1011C000C1EBC106B500054495F8CC51ED0015FA08
:1011D00083F3063304EB43033E2A2ED9C2F34F14A4
:1011E00012F01F0F01D1013CA4B26FEAC4646FEA90
:1011F0005444A3F800440268C1EBC1018B001844B9
:1012000090F8CC1132F821309BB223F4804323F0C4
:10121000700383F4405343F4004343F0800322F807
:101220002130002070BC7047C1EBC104A200024411
:101230000024C2F8E0411A46B7E7C2F34F0412F0A7
:10124000010F01D00134A4B2A402A3F80044D2E7F4
:10125000C1EBC104A300034493F8CD314BBB046838
:10126000B4F85030C1EBC106B500054495F8CC5137
:10127000ED0015FA83F3063304EB43033E2A0DD940
:10128000C2F34F1412F01F0F01D1013CA4B26FEA58
:10129000C4646FEA5444A3F80044ACE7C2F34F04BB
:1012A00012F0010F01D00134A4B2A402A3F800444B
:1012B000A1E7012B9FD10468B4F85030C1EBC106FF
:1012C000B500054495F8CC51ED0015FA83F30633CB
:1012D00004EB4303A3F800248DE701F07F01C1EB89
:1012E000C1018B001844B0F8E4017047F8B5054619
:1012F00001F07F04E000001B810029448A63CB6376
:1013000000220A64012281F8292081F828404F6BCD
:10131000BB423CD9DB1BCB63C4EBC4039A002A4419
:1013200092F83230002B3AD02868C4EBC402930004
:101330002B4493F8283030F8233013F0400F44D07A
:10134000C4EBC40293002B441A8EE3001B1B9E00C7
:101350002E44BBB2B16B00F03AFC96F82930002B5A
:1013600039D0012B46D12A68C4EBC4018B002B4431
:1013700093F8281032F8213023F0F0031B051B0DE1
:1013800043F4404343F0800322F8213032E0C4EBC1
:10139000C4018A002A440021D1631F46BCE7BFB2C2
:1013A00016463B46928DB16B286800F010FC2A6807
:1013B000B2F8503096F82810C90011FA83F30233BE
:1013C00002EB4303A3F8007414E0C4EBC4029300DF
:1013D0002B44DA8DB9E72A6896F8281032F82130C4
:1013E00023F0F0031B051B0D43F4004343F0C0033F
:1013F00022F821302A68C4EBC404A3001D4495F8E8
:10140000281032F821309BB223F4E04323F040034C
:1014100083F0300343F4004343F0800322F821308B
:101420000020F8BD70B582B005460023ADF8043049
:10143000B1E103889BB223F4E14323F070039BB234
:1014400003802A68B2F8503095F82810C90011FAC4
:1014500083F3023302EB4303B3F80034C3F309030D
:101460002B64AA6B1344AB630021284604F0CCF82C
:1014700095F82430002B00F08E81EB6B002B40F0B0
:101480008A812A6895F8243043F08003A2F84C3012
:10149000002385F824307EE1B0F8503095F8CC2157
:1014A000D20012FA83F3063300EB4303B3F800349F
:1014B000C3F30903C5F8E431B5F8D02105F55D7132
:1014C00000F09BFB2A68138823F070031B051B0D9B
:1014D0001380284604F084F85DE1B5F8D021D5F8F2
:1014E000DC1100F08AFBD5F8E421D5F8DC31134497
:1014F000C5F8DC318EE1C2F34F0112F0010F01D0CB
:10150000013189B28902A3F80014A0E130F8243037
:101510009BB2ADF80430BDF8043013F4004F37D15E
:10152000BDF8043013F0800F00F035812A6832F8DE
:1015300024309BB223F4E14323F070039BB222F8E2
:101540002430C4EBC40293001A462B4493F8323083
:10155000002B40F0C7802868B0F850302A4492F839
:101560002810C90011FA83F3023300EB4303B3F8E8
:101570000034C3F309031364002B00F0E880E20099
:10158000121B910029448A8D896B00F020FBDEE05C
:1015900030F8243023F070031B051B0D20F8243095
:1015A000C4EBC40293001A462B4493F8D631D3B946
:1015B0002868B0F8503011462A4492F8CC21D20065
:1015C00012FA83F3063300EB4303B3F80064C6F367
:1015D0000906A6B329443346B1F8D021D1F8DC116D
:1015E00000F00BFB2BE02868C4EBC40293002B44F3
:1015F00093F8CC3130F8232012F4804F4ED0B0F85D
:101600005020DB0013FA82F3023300EB4303B3F8FC
:101610000064C6F30906AEBB2A68C4EBC4018B00A4
:101620002B4493F8CC1132F8213023F0F0031B0542
:101630001B0D43F4004343F0C00322F82130E200C5
:10164000121B93002B44D3F8E4213244C3F8E42165
:10165000D3F8DC213244C3F8DC21D3F8E0313BB1CC
:10166000C4EBC40081002944D1F8D8118E422FD296
:10167000C4EBC40293002B4493F8CC11284603F02A
:10168000B7FF4DE7E3001B1B990029443346B1F82F
:10169000D221D1F8DC1100F0B0FABDE7B0F850204B
:1016A000DB0013FA82F3063300EB4303B3F8006464
:1016B000C6F30906002EAFD0E3001B1B9900294496
:1016C0003346B1F8D421D1F8DC1100F096FAA3E743
:1016D000C4EBC4008100294491F8CC112846FFF7DF
:1016E00047FD1DE72868C4EBC40293002B4493F820
:1016F000283030F8232012F0400F00F0BD80B0F801
:101700005020DB0013FA82F3023300EB4303B3F8FB
:101710000034C3F30903C4EBC4018A0011462A4410
:101720001364002B40F0A2802A68C4EBC4018B0034
:101730002B4493F8281032F8213023F0F0031B05D6
:101740001B0D43F4404343F0800322F82130296805
:10175000B1F85020E000001B83002B4493F82800D0
:10176000C00010FA82F2023201EB4202B2F8002409
:10177000C2F309021A64996B0A449A63DB6B002B6B
:1017800040F09580C4EBC404A3002B4493F82810C8
:10179000284603F039FF2868B0F844309BB2ADF812
:1017A000063013F4004F00F08C80BDF8064014F0B2
:1017B0000F047FF4ABAEBDF8063013F0100F3FF40A
:1017C00038AE03889BB2ADF80430BDF8043013F492
:1017D000006F7FF461AEBDF8043013F4004FDAD02F
:1017E000038823F070031B051B0D03802868B0F8E5
:1017F000503095F8CC21D20012FA83F3063300EB77
:101800004303B3F80034C3F30903C5F8E431002BF4
:101810007FF463AE0021284603F0EAFE2A68B2F89E
:1018200050309BB2063302EB4303D5F8D8213E2A51
:101830007FF661AEC2F34F1112F01F0F01D10139D3
:1018400089B26FEAC1616FEA5141A3F800142A68B6
:1018500013889BB223F4804323F0700383F4405336
:1018600043F4004343F08003138094E72944CA8D76
:10187000896B00F0ACF957E7B0F85020DB0013FAA1
:1018800082F3063300EB4303B3F80034C3F30903D8
:10189000C4EBC4018A0011462A441364002B3FF4B0
:1018A00043AF29440A8E896B00F091F93CE7C4EB01
:1018B000C404A100294491F828102846FFF716FD1A
:1018C00069E7002002B070BD10B504460368B3F8A4
:1018D000443013F4004F50D12368B3F8442012F47D
:1018E000806F4DD12368B3F8442012F4804F03D0A9
:1018F0004BF6FF72A3F844202368B3F8442012F497
:10190000005F03D04DF6FF72A3F844202368B3F8BC
:10191000442012F4805F3FD12368B3F8442012F4CE
:10192000006F19D0B3F8402092B242F00802A3F839
:10193000402023684FF2FF72A3F844202268B2F8D7
:1019400040309BB243F00403A2F840302368B3F860
:10195000443013F4805F39D02368B3F8442012F484
:10196000007F37D12368B3F8442012F4807F03D07E
:101970004FF6FF62A3F8442010BDFFF753FDABE71D
:101980004FF6FF32A3F84420204603F04EFE00211C
:101990002046FFF7EAF8A5E7B3F8402092B222F01C
:1019A000040292B2A3F840202268B2F840309BB201
:1019B00023F008039BB2A2F84030204603F052FE09
:1019C00023684EF6FF72A3F84420A5E7204603F0F3
:1019D00039FEC1E74FF6FF52A3F84420204603F03A
:1019E0001EFEBFE790F87033012B59D010B40123CD
:1019F00080F870334AB2002A27DBC1EBC104A30090
:101A000003F5E4730344043301249C7001F07F0167
:101A10001970D20F5A7001BB026832F821309BB2A4
:101A200023F4804323F0400383F4805383F01003B6
:101A300043F4004343F0800322F82130002380F870
:101A4000703318465DF8044B704701F07F04C4EB17
:101A5000C404A30028330344D6E782B1026832F8F5
:101A600021309BB223F4E04323F0400383F01003C2
:101A700043F4004343F0800322F82130DEE702689C
:101A800032F821309BB223F4804323F0700383F4B7
:101A9000805343F4004343F0800322F82130CDE724
:101AA0000220704710B44AB2002A41DBC1EBC104E6
:101AB000A30003F5E4730344043300249C7001F095
:101AC0007F011970D20F5A7090F87023012A5CD0F0
:101AD000012280F870235A7892B301681C7831F89B
:101AE000242012F0400F0BD031F8242022F0F00215
:101AF0001205120D42F4004242F0C00221F82420E7
:101B00000268197832F821309BB223F4E04323F0C5
:101B1000400383F0300343F4004343F0800322F892
:101B20002130002380F8703318465DF8044B70476D
:101B300001F07F04C4EBC404A30028330344BCE7D2
:101B400001681C7831F8242012F4804F0BD031F852
:101B5000242022F0F0021205120D42F4404242F01D
:101B6000800221F824200268197832F821309BB2D3
:101B700023F4804323F0700383F4405343F4004381
:101B800043F0800322F82130CBE70220CDE710B4E8
:101B900011F0800F10D001F07F01C1EBC1018C006A
:101BA0002834204482B101228272C3801B0C03813D
:101BB00000205DF8044B7047C1EBC1018C0004F5B7
:101BC000E47420440430EDE782728380F0E701334F
:101BD0005B0800EB420202F580626BB110B40C7836
:101BE000487844EA002422F8044B0231013B002BE0
:101BF000F5D15DF8044B7047704770B45E0800EB98
:101C0000420202F5806208E032F8044B0D4605F806
:101C1000024B240A4C70013E2946002EF4D113F0E9
:101C2000010F01D013880B7070BC704770B582B083
:101C30000446036813F0010F63D0B54B5B6803F0F3
:101C40000C03042B46D0B24B5B6803F00C03082B4B
:101C50003BD06368B3F5803F00F08E80002B40F0EE
:101C6000918003F1804303F504331A6822F4803233
:101C70001A601A6822F480221A60A54AD36A23F0F7
:101C80000F03A1680B43D3626368002B00F09480BC
:101C9000FEF7D2FA05464FF4003393FAA3F39C4BB8
:101CA00019684FF4003393FAA3F3B3FA83F303F004
:101CB0001F03012202FA03F3194222D1FEF7BCFAF4
:101CC000401B6428E7D90320ABE2914B5B6813F417
:101CD000803FBED04FF4003393FAA3F38C4B1968C6
:101CE0004FF4003393FAA3F3B3FA83F303F01F0323
:101CF000012202FA03F3194203D06368002B00F0BB
:101D00008982236813F0020F00F09C80804B5B688F
:101D100013F00C0F72D07E4B5B6803F00C03082BA2
:101D200067D02369002B00F0CB80012292FAA2F346
:101D3000B3FA83F303F1845303F584139B001A6011
:101D4000FEF77AFA0546022393FAA3F3704B19685B
:101D5000022393FAA3F3B3FA83F303F01F030122E0
:101D600002FA03F3194240F09C80FEF765FA401B2B
:101D70000228E8D9032054E2654A136843F480330B
:101D800013607AE7B3F5A02F09D0614B1A6822F4EB
:101D900080321A601A6822F480221A606DE703F11B
:101DA0008043A3F53C331A6842F480221A601A6813
:101DB00042F480321A6060E7FEF73EFA05464FF4BF
:101DC000003393FAA3F3524B19684FF4003393FA9C
:101DD000A3F3B3FA83F303F01F03012202FA03F320
:101DE00019428ED0FEF728FA401B6428E7D9032059
:101DF00017E2474B5B6813F4803F92D1022393FABA
:101E0000A3F3434B1968022393FAA3F3B3FA83F3C2
:101E100003F01F03012202FA03F3194204D02369DD
:101E2000934201D00120FCE13948036823F0F80314
:101E30006169F82292FAA2F2B2FA82F201FA02F28F
:101E400013430360236813F0080F00F08D80A3692B
:101E5000002B61D0012191FAA1F2B2FA82F22D4B4E
:101E600013449B001960FEF7E7F90546022393FA35
:101E7000A3F293FAA3F293FAA3F2254A516A93FAD2
:101E8000A3F3B3FA83F303F01F03012202FA03F36F
:101E9000194269D1FEF7D0F9401B0228E6D9032088
:101EA000BFE11B48036823F0F8036169F82292FA46
:101EB000A2F2B2FA82F201FA02F213430360C1E71E
:101EC000012393FAA3F3B3FA83F303F1845303F5E5
:101ED00084139B0000221A60FEF7AEF90546022328
:101EE00093FAA3F30A4B1968022393FAA3F3B3FA04
:101EF00083F303F01F03012202FA03F31942A1D076
:101F0000FEF79AF9401B0228E9D9032089E100BFB6
:101F10000010024020819010012292FAA2F2B2FA3F
:101F200082F2C14B13449B0000221A60FEF784F931
:101F30000546022393FAA3F293FAA3F293FAA3F2CB
:101F4000BA4A516A93FAA3F3B3FA83F303F01F0377
:101F5000012202FA03F3194206D0FEF76DF9401B85
:101F60000228E6D903205CE1236813F0040F00F097
:101F7000B380AE4BDB6913F0805F26D1AB4BDA69DF
:101F800042F08052DA61DB6903F080530193019BD8
:101F90000125A74B1B6813F4807F18D0E368012B41
:101FA00029D073BB03F1804303F504331A6A22F08E
:101FB00001021A621A6A22F004021A62E368002B14
:101FC0005DD0FEF739F9064647E00025E1E7984A7B
:101FD000136843F480731360FEF72EF90646944BA2
:101FE0001B6813F4807FD9D1FEF726F9801B642883
:101FF000F5D9032015E18D4A136A43F001031362FA
:10200000DCE7052B09D0894B1A6A22F001021A621B
:102010001A6A22F004021A62D0E7844B1A6A42F06C
:1020200004021A621A6A42F001021A62C6E77F4B82
:10203000196A022393FAA3F3B3FA83F303F01F039D
:10204000012202FA03F3194245D1FEF7F5F8801B8D
:1020500041F28833984200F2DF80022393FAA3F220
:1020600093FAA3F3B3FA83F35B0943F00203022B61
:10207000DDD0022393FAA3F36C4B596AD9E7FEF73C
:10208000DBF8064615E0694B196A022393FAA3F3BD
:10209000B3FA83F303F01F03012202FA03F3194298
:1020A00019D0FEF7C9F8801B41F28833984200F23C
:1020B000B580022393FAA3F293FAA3F3B3FA83F35E
:1020C0005B0943F00203022BDDD0022393FAA3F352
:1020D000564B596AD9E7B5BBE369002B00F0A080E5
:1020E000524A526802F00C02082A00F0A380022B28
:1020F0002FD04FF0807393FAA3F3B3FA83F303F175
:10210000845303F584139B0000221A60FEF794F8B1
:1021100004464FF0007393FAA3F3444B19684FF051
:10212000007393FAA3F3B3FA83F303F01F030122BE
:1021300002FA03F319426BD0FEF77EF8001B022867
:10214000E7D903206DE0394AD36923F08053D36186
:10215000C2E74FF0807393FAA3F3B3FA83F303F16A
:10216000845303F584139B0000221A60FEF764F881
:1021700005464FF0007393FAA3F32C4B19684FF008
:10218000007393FAA3F3B3FA83F303F01F0301225E
:1021900002FA03F3194206D0FEF74EF8401B02285C
:1021A000E7D903203DE021494B6823F47413626AA8
:1021B000206A024313434B604FF0807393FAA3F3FA
:1021C000B3FA83F303F1845303F584139B000122D4
:1021D0001A60FEF731F804464FF0007393FAA3F348
:1021E000124B19684FF0007393FAA3F3B3FA83F319
:1021F00003F01F03012202FA03F3194206D1FEF78E
:102200001BF8001B0228E7D903200AE0002008E0A1
:10221000002006E0012004E0032002E0032000E0AB
:10222000002002B070BD00BF20819010001002405D
:10223000007000400120F4E7194B5B6803F00C02CA
:10224000042A03D0082A03D016487047164870475E
:1022500010B403F470114FF4701292FAA2F2B2FAB1
:1022600082F221FA02F2114CA05C0D4AD26A02F00D
:102270000F020F2191FAA1F1B1FA81F1CA40224473
:10228000127C13F4803F07D0074BB3FBF2F303FB40
:1022900000F05DF8044B7047054B03FB00F0F8E7D6
:1022A0000010024000127A000024F400A466000826
:1022B00000093D00704B1B6803F007038B420CD2F2
:1022C0006D4A136823F007030B431360136803F090
:1022D0000703994201D00120704770B5036813F0DD
:1022E000020F06D0654A536823F0F0038468234345
:1022F00053600D460446036813F0010F7AD043681B
:10230000012B2FD0022B42D0022292FAA2F25B4A7A
:102310001068022292FAA2F2B2FA82F202F01F02CE
:10232000012101FA02F2104200F0A48053494A68E8
:1023300022F0030213434B60FDF77EFF06466368FD
:10234000012B39D0022B46D04C4B5B6813F00C0F9D
:1023500050D0FDF771FF801B41F288339842F3D9CA
:10236000032070BD4FF4003292FAA2F2434A106883
:102370004FF4003292FAA2F2B2FA82F202F01F0295
:10238000012101FA02F21042D0D1012070BD4FF0BC
:10239000007292FAA2F2394A10684FF0007292FA73
:1023A000A2F2B2FA82F202F01F02012101FA02F255
:1023B0001042BBD1012070BD304B5B6803F00C03B1
:1023C000042B17D0FDF738FF801B41F28833984269
:1023D000F2D9032070BD294B5B6803F00C03082B76
:1023E00008D0FDF729FF801B41F288339842F2D9CB
:1023F000032070BD204B1B6803F007039D420CD2E5
:102400001D4A136823F007032B431360136803F07E
:1024100007039D4201D0012070BD236813F0040F13
:1024200006D0164A536823F4E063E1680B43536017
:10243000236813F0080F07D0104A536823F4605341
:10244000216943EAC1035360FFF7F6FE0B4B5B685B
:1024500003F0F003F02292FAA2F2B2FA82F2D34031
:10246000074AD35CD840074B1860002002F068FF91
:10247000002070BD012070BD00200240001002400D
:10248000C46600081C010020014B1868704700BF9B
:102490001C01002008B5FFF7F7FF074B5B6803F44A
:1024A000E0634FF4E06292FAA2F2B2FA82F2D34011
:1024B000024AD35CD84008BD00100240D466000830
:1024C0000F2303600B4B5A6802F0030242605A6804
:1024D00002F0F00282605A6802F4E062C2605B6857
:1024E000DB0803F4E0630361034B1B6803F007039D
:1024F0000B6070470010024000200240F0B583B02E
:102500000446036813F4803F48D0934BDB6913F013
:10251000805F40F0D580904BDA6942F08052DA61FA
:10252000DB6903F080530193019B01258B4B1B68F2
:1025300013F4807F00F0C680874B1B6A13F440734E
:1025400022D0626802F4407293421DD08248016A30
:1025500021F440764FF4803393FAA3F2B2FA82F278
:102560007F4F3A4492004FF0010EC2F800E093FA18
:10257000A3F3B3FA83F33B449B0000221A60066284
:1025800011F0010F40F0B380734A136A23F44073D3
:1025900061680B431362002D40F0D580236813F06F
:1025A000010F06D06C4A136B23F00303A1680B43A1
:1025B0001363236813F0020F06D0674A136B23F4EA
:1025C0004033E1680B431363236813F0040F06D014
:1025D000614A136B23F4402321690B43136323687F
:1025E00013F0200F06D05C4A136B23F01003E1694F
:1025F0000B431363236813F4003F06D0564A536815
:1026000023F48003A16B0B435360236813F0400F46
:1026100006D0514A136B23F02003216A0B43136346
:10262000236813F0080F06D04B4A136B23F44013B2
:1026300061690B431363236813F0100F06D0464AF9
:10264000136B23F44003A1690B431363236813F452
:10265000007F06D0404A536823F40003E16A0B432D
:102660005360236813F0800F06D03B4AD36A23F4EB
:10267000F873616A0B43D362236813F4807F06D03A
:10268000354AD36A23F47853A16A0B43D362236893
:1026900013F4805F06D0304A136B23F48073216BF0
:1026A0000B431363236813F4005F53D02A4A136B60
:1026B00023F40073616B0B431363002003B0F0BD80
:1026C000002533E7254A136843F480731360FDF750
:1026D000B3FD0646214B1B6813F4807F7FF42CAFBB
:1026E000FDF7AAFD801B6428F4D90320E6E7FDF777
:1026F000A3FD064615E0184B196A022393FAA3F3CB
:10270000B3FA83F303F01F03012202FA03F3194221
:102710007FF43AAFFDF790FD801B41F28833984279
:1027200016D8022393FAA3F293FAA3F3B3FA83F32E
:102730005B0943F00203022BDDD0022393FAA3F3DB
:10274000054B596AD9E7D36923F08053D36125E754
:102750000320B3E70020B1E7001002400070004002
:102760000081901070470268D36843F00103D36082
:102770000268136843F0010313600020704770473C
:1027800070477047704710B5044603681A6912F025
:10279000020F11D0DA6812F0020F0DD06FF00202B2
:1027A0001A610123037703689B6913F0030F79D043
:1027B000FFF7E6FF0023237723681A6912F0040F5E
:1027C00012D0DA6812F0040F0ED06FF004021A6112
:1027D0000223237723689B6913F4407F68D0204647
:1027E000FFF7CEFF0023237723681A6912F0080F42
:1027F00012D0DA6812F0080F0ED06FF008021A61DA
:10280000042323772368DB6913F0030F57D0204696
:10281000FFF7B6FF0023237723681A6912F0100F21
:1028200012D0DA6812F0100F0ED06FF010021A6199
:10283000082323772368DB6913F4407F46D02046C2
:10284000FFF79EFF0023237723681A6912F0010F18
:1028500003D0DA6812F0010F3FD123681A6912F031
:10286000800F03D0DA6812F0800F3DD123681A6917
:1028700012F4807F03D0DA6812F0800F3BD1236816
:102880001A6912F0400F03D0DA6812F0400F39D104
:1028900023681A6912F0200F03D0DA6812F0200FB3
:1028A00037D110BDFFF76BFF2046FFF76AFF81E7C6
:1028B0002046FFF764FF2046FFF763FF92E72046BC
:1028C000FFF75DFF2046FFF75CFFA3E72046FFF719
:1028D00056FF2046FFF755FFB4E76FF001021A617B
:1028E000204602F0C1FBB8E76FF080021A61204673
:1028F00000F08CF8BAE76FF480721A61204600F09D
:1029000086F8BCE76FF040021A612046FFF73AFFF5
:10291000BEE76FF020021A61204600F076F8C0E7AB
:1029200003682C4A90420ED0B0F1804F0BD0A2F534
:102930009432904207D002F58062904203D002F5B3
:102940009632904203D123F070034A681343214A20
:1029500090421AD0B0F1804F17D0A2F59432904235
:1029600013D002F5806290420FD002F59632904269
:102970000BD002F54062904207D002F5806290428F
:1029800003D002F58062904203D123F44073CA68F9
:10299000134323F080034A69134303608B68C362C7
:1029A0000B6883620B4B98420FD003F5006398428B
:1029B0000BD003F54063984207D003F5806398423B
:1029C00003D003F58063984201D10B6903630123AF
:1029D00043617047002C0140A8B110B5044690F83F
:1029E0003D305BB1022384F83D30211D2068FFF7A4
:1029F00097FF012384F83D30002010BD80F83C3063
:102A0000FFF7B0FEEEE70120704770477047704750
:102A1000D0F818321BB10020C3F81402704702200E
:102A2000704710B5D0F81842D0F81C325BB194F85A
:102A30000002FF2807D09B6894F80122214698479E
:102A4000FF2384F80032002010BD000043230380E0
:102A50000048704708000020432303800048704767
:102A60004C00002043230380004870479000002062
:102A70000A23038000487047D400002038B504467C
:102A8000D0F8185202F0C6FEC5F80C02D4F818327D
:102A90004BB1D4F81C32DB6805F50371D5F804029C
:102AA0009847002038BD022038BD000070B50546AB
:102AB0000C46D0F818620B7813F0600224D0202A5C
:102AC00025D1CA88CAB113F0800F0AD14B7886F895
:102AD0000032CB8886F80132CA88314600F07AFC91
:102AE00015E0D0F81C329B68314660789847E28840
:102AF0003146284600F059FC09E0D0F81C329B68AA
:102B000000224878984702E04B780A2B01D0002039
:102B100070BD0122014900F048FCF8E79001002057
:102B200010B50446812102F00AFE0121204602F080
:102B300006FE8221204602F002FED4F8183253B17C
:102B4000D4F81C325B689847D4F8180202F06CFE87
:102B50000023C4F81832002010BD38B50446037CA9
:102B600073BB4FF400730222812102F0D7FD4FF4B2
:102B7000007302220121204602F0D0FD0823032227
:102B80008221204602F0CAFD4FF4077002F048FE91
:102B90000546C4F8180248B3D4F81C321B6898479D
:102BA0000023C5F81432C5F81832237CA3B14023A2
:102BB000D5F804220121204602F01EFE002038BD77
:102BC00040230222812102F0A9FD4023022201219B
:102BD000204602F0A3FDD1E74FF40073D5F804229C
:102BE0000121204602F008FE002038BD012038BD3A
:102BF00019B1C0F81C120020704702207047D0F8AD
:102C00001832C3F80812C3F8102200207047D0F819
:102C10001832C3F8041200207047D0F818229AB175
:102C200008B5037C3BB14023D2F80422012102F015
:102C3000E3FD002008BD4FF40073D2F80422012107
:102C400002F0DAFD002008BD0220704798B108B5F7
:102C50000346D0F8140210B10020C3F8140209B1E1
:102C6000C3F810121846012380F8FC31027002F0FC
:102C7000FFFC002008BD0220704719B1C0F81412F3
:102C8000002070470220704708B502F039FD00208F
:102C900008BD08B5D0F8143223B11B68984718B1A5
:102CA000022008BD022008BD002008BD08B5D0F8EC
:102CB00014325B689847002008BD38B5044600F51B
:102CC0000275284600F00DF90123C4F8F431B4F878
:102CD0000E32C4F8F83194F8081201F01F03012BEA
:102CE0000ED03BB1022B10D001F08001204602F043
:102CF00034FD03E02946204600F06EFA002038BD7E
:102D00002946204600F08CFAF8E72946204600F0D4
:102D1000A3FAF3E710B5044619BB1346D0F8F42123
:102D2000032A27D1D0F80C11D0F8102191420BD8EA
:102D3000D0F814321B691BB190F8FC21032A0ED085
:102D4000204600F05EFB15E0891AC0F80C118A429B
:102D500028BF0A4692B2194600F04BFB0AE098479A
:102D6000EEE70A46D0F814329B691BB190F8FC11CB
:102D7000032901D0002010BD11469847FAE710B58D
:102D80000446002947D11346D0F8F421022A05D081
:102D900094F80032012B3AD0002010BDC169026ABC
:102DA000914217D88169B1FBF2F302FB13132BB9DF
:102DB0008A4203D8D0F8F831994218D3D4F81432A3
:102DC000DB681BB194F8FC21032A1DD0204600F0DB
:102DD00023FBDDE78A1AC26192B2194600F0F2FACB
:102DE00000231A461946204602F006FDD0E70022CD
:102DF000114600F0E7FA0021C4F8F8110B460A4624
:102E0000204602F0F9FCC3E720469847DEE700239E
:102E100084F80032C0E70A46D0F814325B69002B10
:102E2000BAD090F8FC110329B6D111469847B3E700
:102E300038B5044640230022114602F06FFC4025BD
:102E4000C4F810512B4600228021204602F066FC77
:102E50002562012384F8FC31D4F818322BB1D4F860
:102E600014325B68217920469847002038BD0174F0
:102E70000020704790F8FC3180F8FD31042380F881
:102E8000FC310020704790F8FD3180F8FC310020C3
:102E9000704708B590F8FC31032B01D0002008BD25
:102EA000D0F81432DB69002BF8D09847F6E70023FE
:102EB00002E00133DBB201300278002AF9D1184672
:102EC00070474B88012B00D0704710B50446C0F8FE
:102ED0000432D0F814329B689847204600F091FAEB
:102EE00010BD0B7803704B7843708B78CA7803EB76
:102EF000022343800B794A7903EB022383808B7989
:102F0000CA7903EB0223C380704710B504468021C1
:102F100002F023FC0021204602F01FFC10BD30B55A
:102F200083B004460D464A88130A013B062B00F283
:102F30008180DFE803F00413277F7F637000D0F8FF
:102F400010321B680DF10601007C9847BDF8062081
:102F500012B1EB88002B71D103B030BD037C43B9B3
:102F6000D0F814329B6A0DF1060098470223437093
:102F7000ECE7D0F81432DB6A0DF106009847022323
:102F80004370E3E7D2B2052A34D8DFE802F0030B3E
:102F9000131B232BD0F810325B680DF10601007C67
:102FA0009847D3E7D0F810329B680DF10601007CFA
:102FB0009847CBE7D0F81032DB680DF10601007CB2
:102FC0009847C3E7D0F810321B690DF10601007C69
:102FD0009847BBE7D0F810325B690DF10601007C21
:102FE0009847B3E7D0F810329B690DF10601007CD9
:102FF0009847ABE72946FFF788FFADE7037C33B975
:10300000D0F814325B6B0DF1060098479EE7294615
:10301000FFF77BFFA0E7037C43B9D0F814321B6BAA
:103020000DF106009847072343708FE72946FFF705
:103030006CFF91E72946FFF768FF8DE79A4228BFAA
:103040001A46ADF806200146204600F0AEF983E7A7
:1030500038B504468B88E3B9CB88D3B98D7805F0B1
:103060007F0590F8FC31032B0CD080F8FE512946E7
:1030700002F0A6FB204600F0C4F935B1022384F823
:10308000FC3138BDFFF741FF38BD012384F8FC3126
:1030900038BD2046FFF739FF38BD000038B504467B
:1030A0000D468978254B1970012909D890F8FC3113
:1030B000022B09D0032B1CD02946FFF726FF38BD71
:1030C0002946FFF722FF38BD81B14160032380F814
:1030D000FC31FFF7DEFD022803D0204600F091F915
:1030E00038BD29462046FFF710FF38BD00F089F9AA
:1030F00038BD89B1436899421DD0D9B2FFF7D6FDDA
:103100000E4B197861602046FFF7C3FD02280DD0F1
:10311000204600F076F938BD022380F8FC3141608A
:10312000FFF7C4FD204600F06CF938BD2946204663
:10313000FFF7EBFE38BD00F064F938BD91010020C7
:1031400008B5CB88012B08D190F8FC31022B07D0B1
:10315000032B0DD0FFF7D9FE08BDFFF7D6FE08BD43
:103160000146002341F8083F012200F01EF908BD86
:103170000122011D00F019F908BD08B590F8FC31D5
:10318000023B012B0CD80123C360D0F804320BB1F1
:103190000323C360022200F10C0100F006F908BD10
:1031A000FFF7B3FE08BD10B5044690F8FC31023BB2
:1031B000012B0ED84B88012B00D010BD0023C0F886
:1031C0000432D0F814329B689847204600F019F971
:1031D00010BDFFF79AFEF0E708B54B78092B1CD815
:1031E000DFE803F012181B151B09051B0F0CFFF776
:1031F00096FE002008BDFFF72BFFFAE7FFF74EFF12
:10320000F7E7FFF79DFFF4E7FFF7B7FFF1E7FFF7F9
:1032100058FEEEE7FFF7C7FFEBE7FFF776FEE8E7BC
:1032200038B504460D4690F8FC31032B11D10B79CB
:10323000012B03D9FFF769FE002038BDD0F8143206
:103240009B689847EB88002BF6D1204600F0D9F810
:10325000F2E7FFF75AFEEFE738B505460C468A88D5
:103260000B7803F06003202B11D0D1B26378012BCF
:103270002BD0002B4DD0032B0DD190F8FC31022B1D
:103280000BD0032B10D02146FFF73FFE03E0D0F810
:1032900014329B689847002038BD0029FBD0802954
:1032A000F9D002F05AFAF6E7638823B919B18029F8
:1032B00001D002F052FAD5F814329B682146284614
:1032C0009847284600F09DF8E5E790F8FC31022B7E
:1032D00005D0032B0AD02146FFF717FEDBE70029B4
:1032E000D9D08029D7D002F038FAD4E76388002BF0
:1032F000D1D111F07F0F03D1284600F082F8CAE740
:1033000002F039FAD5F814329B68214628469847CE
:10331000F2E790F8FC31022B05D0032B09D02146AF
:10332000FFF7F3FDB7E711F07F0FB4D002F015FA05
:10333000B1E712F0800F11D101F07F04103400EBDF
:1033400004140434284602F024FA70B101232360E7
:1033500002222146284600F028F89CE701F07F046D
:10336000013400EB04140434ECE700232360EFE79E
:10337000D0B170B50D4616460446FFF798FD0130F2
:10338000400080B23080287003236B70022307E076
:103390005A1CD2B20134E9540233DBB20021A954E1
:1033A00021780029F4D170BD704710B51346022270
:1033B000C0F8F4218361C3610A46002102F00EFACD
:1033C000002010BD08B513460A46002102F006FA97
:1033D000002008BD10B513460322C0F8F421C0F840
:1033E0000831C0F80C310A46002102F005FA00202D
:1033F00010BD08B513460A46002102F0FDF9002071
:1034000008BD08B50423C0F8F43100231A46194654
:1034100002F0E4F9002008BD08B50523C0F8F43136
:1034200000231A46194602F0E7F9002008BD08B546
:1034300001F0BCFA012801D001F094FB08BD00F1B5
:10344000080343604FF0FF328260C36003610023D2
:103450000360704700230361704743684B609A68BC
:103460008A609A685160996008610368013303605B
:10347000704730B40D68B5F1FF3F02D000F108028B
:1034800002E0026904E01A4653681C68A542FAD2B9
:1034900053684B6099608A6051600861036801332A
:1034A000036030BC7047036942688168916082683C
:1034B000416851605A68904205D000220261186844
:1034C00001381860704782685A60F6E710B5044604
:1034D00001F0D8FAA26BE36B9A4204D0002401F009
:1034E000F3FA204610BD0124F9E710B5044601F0B7
:1034F000C9FAA36B23B1002401F0E6FA204610BDFF
:103500000124F9E770B504461646856B026C62B17A
:103510007EB9806803F0A6F8226CA3681344A36008
:103520006268934201D32368A3600135A56300203C
:1035300070BDC06803F096F8236C5B42E2681A44E1
:10354000E26021688A4202D262681344E360022E7C
:10355000EBD1002DE9D0013DE7E7026C72B110B567
:103560000346C4681444C4604068844201D31868A8
:10357000D8600846D96803F075F810BD704738B5B3
:10358000054601F07FFA95F8454064B201E0013C40
:1035900064B2002C0ADD6B6A43B105F1240001F02E
:1035A00047F90028F3D001F0EBF9F0E7FF2385F8A5
:1035B000453001F089FA01F065FA95F8444064B2AB
:1035C00001E0013C64B2002C0ADD2B6943B105F136
:1035D000100001F02DF90028F3D001F0D1F9F0E747
:1035E000FF2385F8443001F06FFA38BD38B530B3A9
:1035F00004460D4601F046FA2168E26B236C03FB9A
:10360000021060600020A063A160013A02FB031376
:10361000E360FF2384F8443084F84530C5B923695A
:10362000F3B104F1100001F003F9C8B14FF080527A
:103630000D4B1A60BFF34F8FBFF36F8F10E04FF049
:10364000500383F31188BFF36F8FBFF34F8FFEE7F3
:1036500004F11000FFF7F3FE04F12400FFF7EFFE82
:1036600001F032FA012038BD04ED00E0F8B51D4646
:10367000069C0B4600293FD02260E06323640121B1
:103680002046FFF7B3FF84F84C50204602F034F98F
:103690001A4D285C02F0AEFBA064194B1988204635
:1036A00002F04EF9204602F027F92E5C204602F087
:1036B0003DF9C1B2304602F0F5FA204602F01CF99D
:1036C0002E5C1836F6B2204602F016F92F5C204622
:1036D00002F02CF9C2B23946304602F037FE2046DD
:1036E00002F00AF92D5C204602F020F90022C1B256
:1036F000284602F03BFBF8BD2460BEE764010020D1
:103700007201002040B94FF0500383F31188BFF3DA
:103710006F8FBFF34F8FFEE7F0B583B0054611B151
:1037200001FB00F000E0002017460C46503001F08D
:103730003BFB064638B100903B4600F15002214663
:103740002846FFF793FF304603B0F0BD2DE9F04364
:1037500085B0019260B1044699B10127BFB94FF01D
:10376000500383F31188BFF36F8FBFF34F8FFEE7D2
:103770004FF0500383F31188BFF36F8FBFF34F8F68
:10378000FEE7026C0AB90127E8E70027E6E7022B0B
:1037900009D06FB94FF0500383F31188BFF36F8FD7
:1037A000BFF34F8FFEE7E26B012AF2D00027F0E76C
:1037B0001D460E4601F0FAF810B9019B03B100272F
:1037C00047B94FF0500383F31188BFF36F8FBFF3F6
:1037D0004F8FFEE74FF00008B9E002F0BDF802F0AD
:1037E00094F8A04B1B8803409BB2EBB1204602F03B
:1037F000A2F89C4B1B8803409BB2ABB1204602F061
:103800007BF8DFF8688218F800702037FFB2204696
:1038100002F072F818F80080204602F087F8C2B271
:103820004146384602F092FD204602F065F8DFF886
:103830003C9219F80070204602F078F85FFA80F8A0
:10384000204602F059F819F80030022B21D0A26B63
:10385000D2B20132D2B24146384602F087FA2A4645
:1038600031462046FFF74EFE636AA3B104F12400FF
:1038700000F0DEFF38B14FF080527B4B1A60BFF38F
:103880004F8FBFF36F8F01F01FF9012005B0BDE826
:10389000F0830022DFE70028F5D04FF08052724B12
:1038A0001A60BFF34F8FBFF36F8FECE701F00CF995
:1038B00002F052F802F029F86A4B1B8803409BB2D1
:1038C000002B00F0C780204602F035F8654B1B88BE
:1038D00003409BB2002B00F0BF80204602F00CF8A2
:1038E000624E355C4835EDB2204602F005F8365C94
:1038F000204602F01BF8C2B23146284602F026FDEF
:103900000020C3E7204602F016F8564B1B88034000
:103910009BB2002B5ED0204601F0EEFFDFF84C9109
:1039200019F800707037FFB2204601F0E5FF19F872
:103930000090204601F0FAFFC2B24946384602F034
:1039400005FD47E02046FFF71AFE00F071FE01F08A
:1039500099F8A26BE36B9A42FFF43FAF022D3FF45C
:103960003CAF019B002BA1D0B8F1000F04D102A8FD
:1039700000F0B2FF4FF0010801F0A6F800F08AFD58
:1039800001F080F894F844305BB2B3F1FF3F02D10C
:10399000002384F8443094F845305BB2B3F1FF3F24
:1039A00002D1002384F8453001F08EF801A902A865
:1039B00000F0A6FF18BB2046FFF788FD0028C1D005
:1039C00001F0CAFF01F0A1FF264B1B8803409BB208
:1039D000002B97D1019904F1100000F00FFF204651
:1039E000FFF7CDFD00F024FE0028B0D14FF080524B
:1039F0001D4B1A60BFF34F8FBFF36F8FA7E72046B1
:103A0000FFF7BDFD00F014FE01F0A6FF01F07DFF01
:103A1000144B1B8803409BB203B3204601F08BFF7D
:103A2000104B1B8803409BB2D3B1204601F064FFCA
:103A30000E4E355C4835EDB2204601F05DFF365C38
:103A4000204601F073FFC2B23146284602F07EFCE8
:103A500000201BE7002019E7002017E7002015E7EA
:103A6000002013E77001002004ED00E06401002055
:103A70002DE9F84F60B1044699B10120B8B94FF073
:103A8000500383F31188BFF36F8FBFF34F8FFEE7AF
:103A90004FF0500383F31188BFF36F8FBFF34F8F45
:103AA000FEE7006C08B90120E8E70020E6E7022BFA
:103AB00009D068B94FF0500383F31188BFF36F8FBB
:103AC000BFF34F8FFEE7E56B012DF2D00020F0E74A
:103AD0001F4691468A4601F0E5F8EFF311864FF054
:103AE000500383F31188BFF36F8FBFF34F8FA26B27
:103AF000E36B9A4201D3022F5CD194F845506DB22A
:103B000001F02AFF01F001FF424B1B8803409BB2EA
:103B1000FBB1204601F00FFF3E4B1B8803409BB2D8
:103B2000BBB1204601F0E8FEDFF8ECB01BF80080E6
:103B300008F130085FFA88F8204601F0DDFE1BF836
:103B400000B0204601F0F2FEC2B25946404602F0F3
:103B5000FDFB204601F0D0FE2F4B13F800802046DD
:103B600001F0E4FEA26B0132D2B2C1B2404602F0D3
:103B7000FDF83A4651462046FFF7C4FCB5F1FF3F39
:103B800012D1636A002B3BD004F1240000F050FEF8
:103B9000002837D0B9F1000F36D00120C9F8000055
:103BA00086F31188BDE8F88F6B1C5BB284F8453052
:103BB0000120F5E701F0D0FE01F0A7FE154B1B88B0
:103BC00003409BB213B3204601F0B5FE114B1B8896
:103BD00003409BB2E3B1204601F08EFE0E4F3D5CE8
:103BE0005835EDB2204601F087FE3F5C204601F0DB
:103BF0009DFEC2B23946284602F0A8FB0020CFE75E
:103C00000120CDE70120CBE70120C9E70020C7E76D
:103C10000020C5E770010020640100202DE9F04379
:103C200085B0019260B1044699B10126BEB94FF04A
:103C3000500383F31188BFF36F8FBFF34F8FFEE7FD
:103C40004FF0500383F31188BFF36F8FBFF34F8F93
:103C5000FEE7026C0AB90126E8E70026E6E71D4602
:103C6000884600F0A3FE10B9019B03B1002646B9B7
:103C70004FF0500383F31188BFF36F8FBFF34F8F63
:103C8000FEE700263EE1E66841462046FFF765FC78
:103C9000002D5AD101F060FE01F037FE914B1B88D8
:103CA00003409BB2D3B1204601F045FE8D4B1B88EB
:103CB00003409BB293B1204601F01EFE8A4E355C54
:103CC0002835EDB2204601F017FE365C204601F0A3
:103CD0002DFEC2B23146284602F038FB204601F0E4
:103CE0000BFEDFF8048218F80050204601F01EFE9B
:103CF000C6B2204601F000FE18F80030022B1FD19A
:103D000001F02AFE01F0FCFDC2B23146284602F065
:103D10002DF8013FA763236963B104F1100000F09F
:103D200087FD38B14FF08052704B1A60BFF34F8F50
:103D3000BFF36F8F00F0C8FE012005B0BDE8F0832F
:103D4000A26BD2B2013AD2B2DFE701F005FE01F078
:103D5000DCFD644B1B8803409BB2D3B1204601F0CD
:103D6000EAFD604B1B8803409BB293B1204601F0F3
:103D7000C3FD5D4F3D5C7835EDB2204601F0BCFDE2
:103D80003F5C204601F0D2FDC2B23946284602F01F
:103D9000DDFAE660636A002BCCD004F1240000F069
:103DA00047FD0028C6D04FF08052504B1A60BFF339
:103DB0004F8FBFF36F8FBDE700F086FE4DB301F06C
:103DC000CBFD01F0A2FD474B1B8803409BB2002BAB
:103DD00000F06781204601F0AEFD424B1B88034096
:103DE0009BB2002B00F05F81204601F085FD3E4E26
:103DF000355C213DEDB2204601F07EFD365C20466B
:103E000001F094FDC2B23146284602F09FFA00202C
:103E100093E701F0A1FD01F078FD324B1B880340D0
:103E20009BB2002B00F04181204601F084FD2D4B18
:103E30001B8803409BB2002B00F03981204601F023
:103E40005BFD294E355C5035EDB2204601F054FD46
:103E5000365C204601F06AFDC2B23146284602F0C7
:103E600075FA002069E702A800F036FD012655E04A
:103E7000002384F844305DE0002384F845305FE09F
:103E800001F06AFD01F041FD164B1B8803409BB217
:103E9000002B00F08B80204601F04DFD114B1B885C
:103EA00003409BB2002B00F08180204601F024FDEE
:103EB000DFF8349019F800706837FFB2204601F03F
:103EC0001BFD19F80090204601F030FDC2B24946B2
:103ED000384602F03BFA69E02046FFF750FB00F05D
:103EE000A7FB0FE0700100206401002004ED00E05A
:103EF0002046FFF744FB00F09BFB2046FFF7F5FA56
:103F000000287FD100F0BEFDA76B002F7FF4BBAE71
:103F1000019B002B3FF450AF002EA4D000F0D4FD45
:103F200000F0B8FA00F0AEFD94F844305BB2B3F1A3
:103F3000FF3F9DD094F845305BB2B3F1FF3F9BD07B
:103F400000F0C2FD01A902A800F0DAFC0028CFD1E0
:103F50002046FFF7CAFA0028BED0002D90D001F00D
:103F6000FBFC01F0D2FC574B1B8803409BB2EBB12A
:103F7000204601F0E0FC534B1B8803409BB2ABB1E1
:103F8000204601F0B9FCDFF8409119F80070243F99
:103F9000FFB2204601F0B0FC19F80090204601F075
:103FA000C5FCC2B24946384602F0D0F9204601F0BD
:103FB000A3FC454B1B5C022B0FD001F0CDFC01F0A4
:103FC000A4FC404B1B8803409BB233B101F0C4FCFE
:103FD00001F096FCC0B201F0F1FE019904F1240059
:103FE00000F00CFC2046FFF7CAFA00F021FB002885
:103FF00088D14FF08052354B1A60BFF34F8FBFF31B
:104000006F8F7FE73DB301F0A7FC01F07EFC2D4BE5
:104010001B8803409BB2002B4BD0204601F08BFC49
:10402000284B1B8803409BB2002B44D0204601F054
:1040300063FC254E355C213DEDB2204601F05CFC71
:10404000365C204601F072FCC2B23146284602F0CE
:104050007DF9002071E601F07FFC01F056FC194B60
:104060001B8803409BB243B3204601F064FC154B10
:104070001B8803409BB213B3204601F03DFC124E57
:10408000355C5035EDB2204601F036FC365C2046FA
:1040900001F04CFCC2B23146284602F057F900202C
:1040A0004BE6002049E6002047E6002045E60020D8
:1040B00043E6002041E600203FE600203DE60020E8
:1040C0003BE600BF700100206401002004ED00E029
:1040D000806C70478164704790F84C007047000016
:1040E000064B9B6A012BFBD94FF08052044B1A60A0
:1040F000BFF34F8FBFF36F8FF2E700BF9401002033
:1041000004ED00E00B4BD3F8B4301B6853B9012326
:1041100053B9084BD3F8B420D268D2685268C3F8B8
:10412000B82070470023F3E74FF0FF32014BC3F88C
:10413000B8207047940100202DE9F04781460D46D4
:1041400017469A46089EDDF824800A9C9200A52115
:10415000206B02F092FA236B07F18042013A03EBE5
:10416000820727F0070700230F2B07D8E95CE21826
:1041700082F83410EA5C0AB10133F5E7002384F8D1
:104180004330062E00D90626E662201DFFF762F9AD
:1041900004F11800FFF75EF92461C6F10706A66175
:1041A00064620023E36484F850305246494638463E
:1041B00000F040FC2060B8F1000F01D0C8F80040CA
:1041C000BDE8F08770B5002407E004EB840293009B
:1041D0000E481844FFF733F90134062CF5D90C4C7E
:1041E00004F1BC063046FFF72AF904F1D005284651
:1041F000FFF725F904F11400FFF721F92046FFF736
:104200001EF9C4F8B460C4F8E45070BDBC010020CD
:104210009401002038B5044600F034FC404BD3F83C
:10422000E8200132C3F8E820D3F8EC30002B66D048
:104230003B4BD3F8F0304BB9394BD3F8EC30DA6A5A
:10424000E36A9A4202D8364BC3F8EC40344AD2F8BB
:10425000F4300133C2F8F430636414B3032001F086
:10426000C9FDA0642F4B1988204601F053FB20465E
:1042700001F046FB04F13402C1B2032001F006FE56
:10428000204601F03DFB94F82C20C1B2032001F040
:1042900043FD204601F034FBC2B203211B2002F093
:1042A00055F8204601F031FB1F4B1B88184080B2A7
:1042B00078BBE36A01229A40194DD5F8F8100A43F9
:1042C000C5F8F82005F1280003EB83039A00211DAF
:1042D0001044FFF7C2F800F0F7FBD5F8F0306BB1EF
:1042E000D5F8EC30DA6AE36A9A4207D24FF080528E
:1042F0000E4B1A60BFF34F8FBFF36F8F38BD084B63
:10430000C3F8EC40D3F8E830012B9FD1FFF75AFFF8
:104310009CE7204601F0F4FAC0B201F07FFFC8E745
:1043200094010020720100207001002004ED00E0E3
:1043300070B504460E46204BD3F8FC50D3F8EC0081
:104340000430FFF7B0F860B91B4BD3F8EC20D16A0A
:10435000012202FA01F1D3F8F82022EA0102C3F89F
:10436000F820B4F1FF3F15D02C44134BD3F8EC30B8
:104370005C60A54217D8104DD5F8B400D5F8EC1004
:104380000431FFF776F8D5F8B8309C4201D2C5F871
:10439000B84070BD002EE7D00748D0F8EC100431CB
:1043A000FFF75BF870BD044BD3F8E400D3F8EC10D2
:1043B0000431FFF75EF870BD940100202DE9F04351
:1043C00085B006460F4615469846900000F0ECFC76
:1043D00000B38146542000F0E7FC0446B0B1C0F8B9
:1043E0003090CCB10023039302940D9B01930C9B5E
:1043F000009343462A4639463046FFF79DFE204645
:10440000FFF708FF012005B0BDE8F083484600F043
:1044100057FDE6E70024E4E74FF0FF30F3E7000044
:1044200000B583B0174B01930023009380221649F7
:104430001648FFF7C3FF012805D0B0F1FF3F18D0A1
:1044400003B05DF804FB4FF0500383F31188BFF312
:104450006F8FBFF34F8F0E4B4FF0FF32C3F8B82072
:104460000122C3F8F0200022C3F8FC2000F0A6FBD4
:10447000E6E74FF0500383F31188BFF36F8FBFF36C
:104480004F8FFEE798020020DC660008E14000083C
:1044900094010020034AD2F800310133C2F8003100
:1044A000704700BF940100202DE9F0415D4BD3F827
:1044B0000031012B03D05B4BD3F8083133B95A4A92
:1044C000136801331360002001F0FAFD554BD3F857
:1044D0000031CBB1534BD3F80031002B40F0928028
:1044E000504BD3F8FC600136C3F8FC6026BBD3F810
:1044F000B4301B6883B14FF0500383F31188BFF3CE
:104500006F8FBFF34F8FFEE7464BD3F8FC1001319E
:10451000032001F06DFFDDE7424BD3F8B420D3F860
:10452000E410C3F8B410C3F8E420D3F80C2101322E
:10453000C3F80C21FFF7E6FD3A4BD3F8B8309E42A2
:104540004BD20025374AD2F8EC30DB6A03EB830309
:1045500099000A44936A012B5BD9012559E0012592
:10456000304BD3F8B4301B68002B38D00023002B1D
:1045700037D12C4BD3F8B430DB68DC6863689E42DB
:1045800035D304F104084046FEF78DFFA36A1BB142
:1045900004F11800FEF787FF204601F0B6F9234B1F
:1045A0001B8803409BB233BBE36A01229A401D4F34
:1045B000D7F8F8100A43C7F8F82007F1280003EBF2
:1045C00083039A0041461044FEF747FFE26AD7F89A
:1045D000EC30DB6A9A42C2D2C2E70025C0E7012371
:1045E000C5E74FF0FF320F4BC3F8B820AAE70D4ADA
:1045F000C2F8B830A6E7204601F082F9C0B201F057
:104600000DFED1E7074AD2F808310133C2F808316C
:104610000025044BD3F8103103B101252846BDE82D
:10462000F08100BF940100209C1100207001002047
:10463000434BD3F8003143B94FF0500383F3118853
:10464000BFF36F8FBFF34F8FFEE770B500F01AFA1C
:104650003B4BD3F80021013AC3F80021D3F80031D5
:10466000002B69D1364BD3F8E830002B3DD1002424
:1046700000F02AFA204670BDE36A01229A40304ECB
:10468000D6F8F8100A43C6F8F82006F1280003EB24
:1046900083039A0029461044FEF7DFFEE26AD6F84B
:1046A000EC30DB6A9A4202D30122C6F81021244B77
:1046B0005B69E3B1224B1B6ADC6804F11800FEF76A
:1046C000F2FE251D2846FEF7EEFE204601F01DF9FC
:1046D0001C4B1B8803409BB2002BCDD0204601F021
:1046E0000FF9C0B201F09AFDC6E70024DFE70CB174
:1046F000FFF708FD124BD3F808417CB9104BD3F8F3
:104700001031DBB14FF080520F4B1A60BFF34F8F67
:10471000BFF36F8F0124ABE7013C08D0FFF7C4FE65
:104720000028F9D00122064BC3F81021F4E700223B
:10473000034BC3F80821E1E7002499E7002497E739
:10474000940100207001002004ED00E0294BD3F813
:104750000031CBB9274A0023C2F81031D2F8F83023
:10476000B3FA83F3DBB2C3F11F0303EB83008100D1
:104770000A44926A6AB94FF0500383F31188BFF379
:104780006F8FBFF34F8FFEE701221A4BC3F8102142
:10479000704710B5174A9900CC18A0001044C46A9D
:1047A0006468C46228321944880001460830024413
:1047B000944212D00F4903EB83039A000A44D36A50
:1047C000DB68C1F8EC3001F0C7F801F09EF80A4B45
:1047D0001B8803409BB22BB910BD6068054A0A4490
:1047E000D062E7E701F0B8F801F08AF8C0B201F052
:1047F0003FFEF1E7940100207001002040B94FF026
:10480000500383F31188BFF36F8FBFF34F8FFEE721
:1048100010B50C46054BD3F8EC101831FEF729FE05
:1048200001212046FFF784FD10BD00BF9401002048
:1048300038B5C368DC6894B304F118052846FEF760
:1048400032FE224BD3F80031002B38D1251D2846EB
:10485000FEF729FE204601F058F81D4B1B88034047
:104860009BB22BBBE36A01219940184AD2F8F800A9
:104870000143C2F8F810283203EB8303980029465D
:104880001044FEF7EAFDE26A104BD3F8EC30DB6A25
:104890009A4219D901200D4BC3F8100138BD4FF0D1
:1048A000500383F31188BFF36F8FBFF34F8FFEE781
:1048B000204601F025F8C0B201F0B0FCD2E729464D
:1048C0000448FEF7CAFDDEE7002038BD9401002051
:1048D00070010020A801002038B1084AD2F80C115C
:1048E0000160D2F8FC20426070474FF0500383F320
:1048F0001188BFF36F8FBFF34F8FFEE79401002045
:1049000038B5D0B1044609B30D4600F0BBF81B4BD7
:10491000D3F8FC102B68B3F1FF3F2BD02068174A67
:10492000D2F80C21904202D06268914224D262688F
:10493000881A834213D8012418E04FF0500383F300
:104940001188BFF36F8FBFF34F8FFEE74FF0500317
:1049500083F31188BFF36F8FBFF34F8FFEE7521AB7
:1049600013442B602046FFF7B7FF002400F0ACF89B
:10497000204638BD0024F9E70124F7E79401002020
:104980000122024BC3F81021704700BF94010020A0
:1049900008B1806C70470020704700B18164704797
:1049A000014BD3F8EC00704794010020064BD3F87C
:1049B000F0302BB1044BD3F800311BB90220704703
:1049C0000120704700207047940100200B4B1B68AA
:1049D000B3F1FF3F08D04FF0500383F31188BFF3CA
:1049E0006F8FBFF34F8FFEE74FF0500383F31188B3
:1049F000BFF36F8FBFF34F8FFEE700BF180100209A
:104A000006480068006880F3088862B661B6BFF3A4
:104A10004F8FBFF36F8F00DF00BF000008ED00E095
:104A2000DFF80C00016841F470010160704700007C
:104A300088ED00E04FF0807340F8043C21F0010164
:104A400040F8081C054B40F80C3C40F8202C6FF057
:104A5000020340F8243C4438704700BFCD490008A9
:104A6000074B19680868B0E8F04F80F30988BFF376
:104A70006F8F4FF0000080F311887047AFF3008014
:104A8000800200204FF0500383F31188BFF36F8F33
:104A9000BFF34F8F0A4A136801331360012B0DD106
:104AA000084B1B6813F0FF0F08D04FF0500383F33F
:104AB0001188BFF36F8FBFF34F8FFEE7704700BFC2
:104AC0001801002004ED00E0094B1B6843B94FF0CA
:104AD000500383F31188BFF36F8FBFF34F8FFEE74F
:104AE000013B034A13600BB983F31188704700BF81
:104AF000180100200000000000000000000000007D
:104B0000EFF30980BFF36F8F154B1A681EF0100F7B
:104B100008BF20ED108A20E9F04F10604DF8043DE9
:104B20004FF0500080F31188BFF34F8FBFF36F8FAA
:104B3000FFF70CFE4FF0000080F3118808BC1968E5
:104B40000868B0E8F04F1EF0100F08BFB0EC108AF4
:104B500080F30988BFF36F8F704700BFAFF3008009
:104B60008002002008B54FF0500383F31188BFF393
:104B70006F8FBFF34F8FFFF797FC18B14FF0805244
:104B8000024B1A60002383F3118808BD04ED00E096
:104B9000064B1B68064AA2FB03239B09013B054AFF
:104BA00013600722044B1A60704700BF1C010020ED
:104BB000D34D621014E000E010E000E0314B1A68C1
:104BC000314B9A4219D02F4B1A68304B9A421DD064
:104BD00000B583B02E4B1A78D2B20192FF221A7020
:104BE0001B78DBB28DF803309DF8033003F05003DF
:104BF000284A1370072353601BE04FF0500383F3E0
:104C00001188BFF36F8FBFF34F8FFEE74FF0500354
:104C100083F31188BFF36F8FBFF34F8FFEE71D4AF9
:104C20005368013B53609DF803305B00DBB28DF8A5
:104C300003309DF8033013F0800FF0D1154A53680C
:104C40001B0203F4E0635360019BDBB2104A137054
:104C5000114B1A6842F470021A601A6842F07042EE
:104C60001A60FFF795FF00220C4B1A60FFF7D8FE81
:104C70000B4A136843F040431360FFF7C1FEFFF790
:104C8000A5FE00BF00ED00E071C20F4170C20F41F0
:104C900000E400E0A802002020ED00E01801002060
:104CA00034EF00E0EFF305830F2B0FD9104A9B5C24
:104CB000DBB2104A1278934208D24FF0500383F3CC
:104CC0001188BFF36F8FBFF34F8FFEE70A4B1B684E
:104CD00003F4E063074A5268934208D94FF0500347
:104CE00083F31188BFF36F8FBFF34F8FFEE77047D9
:104CF000F0E300E0A80200200CED00E0134A12F0FF
:104D0000070F20D0D11D21F00701C1F540631344E6
:104D10000A460E49C1F8002C0020C1F8040C1344C7
:104D2000083B23F00703C1F8083C58601860981A44
:104D300050601360C1F80C0CC1F8100C4FF0004328
:104D4000C1F8143C70474FF44063E2E7B002002022
:104D500010B4134B1A6882421CD359685C18A042E5
:104D600003D1406801445960184641684418A24282
:104D700014D10C4CD4F8084CA2420DD05268114406
:104D800041601A6812680260984200D018605DF8AD
:104D9000044B70471346DDE70460F5E70260F3E774
:104DA000B00E0020B002002070B50446FFF772FB81
:104DB000424BD3F8083CC3B1404BD3F8143C1C42DF
:104DC00072D1ACB1083414F0070F11D024F00704ED
:104DD000083404F007035BB14FF0500383F31188EC
:104DE000BFF36F8FBFF34F8FFEE7FFF787FFE3E758
:104DF000002C5BD0314BD3F8103C9C4258D82F4B41
:104E0000D3F8005C03F5406301E02B4615466A6861
:104E1000944202D92A68002AF7D1284AD2F8082CED
:104E2000954247D01E6808362A681A606B681B1BBB
:104E3000102B10D9281910F0070F08D04FF050038D
:104E400083F31188BFF36F8FBFF34F8FFEE743608B
:104E50006C60FFF77DFF6968184AD2F8103C5B1A56
:104E6000C2F8103CD2F80C2C934202D2134AC2F87A
:104E70000C3C124BD3F8143C0B436B6000232B60AB
:104E800026B122463146942001F008FAFFF7D0FB04
:104E900016F0070F10D04FF0500383F31188BFF3C3
:104EA0006F8FBFF34F8FFEE70026E9E70026E7E7A5
:104EB0000026E5E70026E3E7304670BDB00200209B
:104EC000002838D038B50446A0F1080550F8043C55
:104ED0001949D1F8141C0B4208D14FF0500383F349
:104EE0001188BFF36F8FBFF34F8FFEE750F8080CA8
:104EF00040B14FF0500383F31188BFF36F8FBFF3BE
:104F00004F8FFEE723EA010344F8043CFFF7C2FA9F
:104F100054F8042C0849D1F8103C1344C1F8103C53
:104F200052422146962001F0B9F92846FFF710FFBA
:104F3000FFF77EFB38BD7047B002002084B00F4BF6
:104F40005A6942F480025A615A6902F4800201925D
:104F5000019A5A6942F400325A615A6902F40032E5
:104F60000292029A5A6942F480225A615B6903F400
:104F700080230393039B04B0704700BF00100240DE
:104F800000B583B0044A054B5A6300210348FBF780
:104F9000B9FB8DF80700F8E7AC11002014130020CE
:104FA00010B582B000234FF0FF3201A9114800680C
:104FB000FEF734FE104B0093019B1A78002AF1D1C2
:104FC00059789A78120902EB01120B4C22609A78F8
:104FD00002F00F0222610022A260E260143453F852
:104FE000030F596803C41346694604480068FEF776
:104FF000ADFBD7E758130020CC130020E4140020A9
:1050000000B583B0084B1B6B019300234FF0FF32B8
:1050100001A906480068FEF701FE0348019B0363EF
:105020000021FBF763FAF0E714130020E4140020DA
:1050300010B586B04FF480540194012302930223EB
:1050400003930323049301A94FF09040FBF75EFC08
:10505000002221464FF09040FBF728FD4FF47A7074
:10506000FBF7F0F806B010BD08B50268034B9A4292
:1050700000D008BDFBF7D4F8FBE700BF00040040F8
:10508000FEE7000000B58BB02048214B03604823A9
:1050900043604FF0404383600023C3604FF480229D
:1050A000026142618361C361036243628362C362DE
:1050B000FBF75BF9F8B900230593069301220792E9
:1050C0000093019302930393049208920993694613
:1050D0000E48FBF7CBF898B900220F211520FBF7FB
:1050E000B1FB1520FBF7E0FB01210848FBF70AFBA9
:1050F0000BB05DF804FB4FF494710648FFF7C0FF56
:1051000040F239110348FFF7BBFF00BF1413002022
:1051100000640040E466000800B59FB001231493CA
:105120004FF4A02215921693189302231B934FF469
:1051300080331C934FF4E0131D9314A8FCF776FD05
:1051400050BB0F230F9302211091002311934FF4B2
:105150008062129213930FA8FDF7ACF800BB4FF4D6
:105160000033009300230E936846FDF7C7F9D8B9C2
:10517000FDF78AF90F4BA3FB00308009FBF7A0FB7A
:105180000420FBF7B3FB00220F214FF0FF30FBF7A9
:1051900059FB1FB05DF804FBF2210748FFF770FFD1
:1051A000FF210548FFF76CFF4FF483710248FFF7BA
:1051B00067FF00BFD34D6210E466000800B583B0FE
:1051C000FBF71CF8FFF7A8FFFFF7B8FEFFF75AFF41
:1051D000FFF72EFF00F040F9012001F0DBF9002479
:1051E000164B1C700194012500952346802214491A
:1051F0001448FFF7E3F80194032300932346802229
:1052000011491248FFF7DAF80194009523468022ED
:105210000F491048FFF7D2F8224604210A20FEF772
:1052200071FA0D4B1860224604210A20FEF76AFA33
:105230000A4B1860FFF7F4F8FEE700BFA811002042
:10524000F4660008A14F000800670008015000083C
:1052500010670008814F000858130020E414002054
:1052600000B583B0214B9A6942F001029A619A69B4
:1052700002F001020092009ADA6942F08052DA618B
:10528000DB6903F080530193019B0320FBF7C8FA0D
:10529000002211466FF00B00FBF7D4FA00221146F2
:1052A0006FF00A00FBF7CEFA002211466FF00900FA
:1052B000FBF7C8FA002211466FF00400FBF7C2FAB0
:1052C000002211466FF00300FBF7BCFA00220F2109
:1052D0006FF00100FBF7B6FA00220F214FF0FF300C
:1052E000FBF7B0FA03B05DF804FB00BF001002400A
:1052F0000268114B9A4200D0704700B587B003F5A1
:10530000D633DA6942F00072DA61DB6903F00073C8
:105310000093009B4FF440730193022302930023F8
:105320000393032304930923059301A90348FBF77F
:10533000EDFA07B05DF804FB00640040000400488B
:1053400000B589B0002201461D20FBF77BFA1D2025
:10535000FBF7AAFA154BDA6942F00202DA61DB695F
:1053600003F002030193019B02A903A8FDF7A8F82B
:10537000FDF790F843000E48A0FB03239B0C013B74
:105380000C480D4A026040F2E732C26043600023DD
:1053900003618360FDF720FB18B1012009B05DF8BF
:1053A00004FB0448FDF7DFF9F8E700BF00100240F6
:1053B00083DE1B43E8140020000400407047FEE732
:1053C000FEE7FEE7FEE7704708B5FEF730F808BDD8
:1053D00008B50248FDF7D7F908BD00BFE814002062
:1053E00008B50248FCF770FA08BD00BF1C1F00207A
:1053F0001549D1F8883043F47003C1F88830134B55
:105400001A6842F001021A605868114A02405A6054
:105410001A6822F0847222F480321A601A6822F428
:1054200080221A605A6822F4FE025A60DA6A22F078
:105430000F02DA62186B074A02401A6300229A6070
:105440004FF000638B60704700ED00E000100240F9
:105450000CC07FF8CCFC00FF10B5094C00220949B4
:105460002046FDF7F3FB08492046FDF706FC0749F7
:105470002046FDF7BDFB2046FDF706FC10BD00BF32
:105480002815002048010020E00000202001002015
:105490000020704700207047F0B583B004460E46E8
:1054A000244D01462846FDF7B2FB2846FDF7B5FB23
:1054B0002378DE2B02D0022003B0F0BD33682344F2
:1054C00013F8013CAD2BF6D11B4E337803EB83016F
:1054D00003EB4101194D481901900133DBB2184A21
:1054E000A2FB0372D20802EB82025700DB1B33706F
:1054F00063784B5554F8021F6268C0F80110C0F879
:1055000005202289A0F8092002AA002342F8083DBC
:10551000012301A90B480068FEF7AAFA009B002BA3
:10552000CAD04FF08052084B1A60BFF34F8FBFF3C1
:105530006F8FC1E728150020A81100205C13002000
:10554000CDCCCCCC5813002004ED00E010B5064CB7
:10555000002206492046FDF752FB05492046FDF78B
:1055600056FB002010BD00BF28150020341B002072
:105570004C1700200268174B9A4200D0704710B5B4
:1055800086B04FF4C0530193022302930024039486
:10559000032304930E23059301A94FF09040FBF7DA
:1055A000B5F90D4BDA6942F40002DA61DB6903F404
:1055B00000030093009B094A136843F02003136023
:1055C000224606214B20FBF73DF94B20FBF76CF9F7
:1055D00006B010BD005C0040001002400000014019
:1055E00008B500F55D71D0F8A403FDF766FB08BDB2
:1055F00008B5C1EBC10293000344D3F8DC21D0F815
:10560000A403FDF787FB08BD08B5C1EBC1029300F9
:1056100003449A6BD0F8A403FDF7B1FB08BD08B5AD
:10562000D0F8A403FDF735FC08BD10B504460121F0
:10563000D0F8A403FDF71BFCD4F8A403FDF7F8FB96
:1056400010BD000010B50446D0F8A403FDF712FC0D
:10565000A36923B1024A136943F00603136110BD25
:1056600000ED00E008B5D0F8A403FDF70CFC08BD80
:1056700010B504461F48C0F8A443C4F820021E4BCE
:10568000036008234360022282600023C36002613A
:1056900083610362FBF70FFA30BB18230022114627
:1056A000D4F82002FCF773FA582300228021D4F8A2
:1056B0002002FCF76CFAC02300228121D4F82002DA
:1056C000FCF765FA4FF4887300220121D4F8200218
:1056D000FCF75DFA4FF4807300228221D4F8200297
:1056E000FCF755FA002010BD40F241110348FFF7C6
:1056F000C7FCD2E71C1F0020005C00401C670008AC
:1057000008B5D0F82002FBF72AFA18B1022803D016
:10571000022008BD002008BD012008BD10B51C46B0
:1057200013462246D0F82002FBF735FA18B10228BA
:1057300003D0022010BD002010BD012010BD08B50F
:10574000D0F82002FBF7FFFB18B1022803D002209B
:1057500008BD002008BD012008BD08B5D0F8200212
:10576000FCF740F918B1022803D0022008BD002040
:1057700008BD012008BD08B5D0F82002FCF792F959
:1057800018B1022803D0022008BD002008BD012066
:1057900008BDD0F8203211F0800F08D101F07F0150
:1057A000C1EBC1018A00134493F8CE01704701F0A8
:1057B0007F01C1EBC1018A00134493F82A007047AE
:1057C00008B5D0F82002FBF7D0F918B1022803D0B1
:1057D000022008BD002008BD012008BD08B5D0F892
:1057E0002002FBF783FD18B1022803D0022008BD78
:1057F000002008BD012008BD08B5D0F82002FBF745
:10580000B7FC18B1022803D0022008BD002008BD53
:10581000012008BD08B5D0F82002FBF75EFD08BDE9
:1058200000487047C80E00207047704712230B8055
:10583000004870473001002004230B800048704767
:105840004401002008B50A4628B105490548FDF77E
:105850008FFD034808BD02490248FDF789FDF8E7BE
:10586000C42200203067000810B5044C0A462146C7
:105870000348FDF77DFD204610BD00BFC422002077
:105880003867000808B50A4628B105490548FDF7FC
:105890006FFD034808BD02490248FDF769FDF8E7BE
:1058A000C42200204C67000808B50A4628B1054903
:1058B0000548FDF75DFD034808BD02490248FDF7B4
:1058C00057FDF8E7C42200205C67000808B50A46C7
:1058D00028B105490548FDF74BFD034808BD0249BD
:1058E0000248FDF745FDF8E7C4220020686700087C
:1058F00008B5FEF7EDFB08BD08B5FEF7EDFB08BDEA
:1059000008B5FFF745F880B208BD08B5FFF740F8C5
:10591000000C08BD38B504460D46FFF739F881B2D2
:1059200041EA05412046FFF738F838BD08B5FFF7D2
:10593000DFFF80B208BD08B5FFF7DAFF000C08BD35
:1059400038B504460D46FFF7D3FF81B241EA054161
:105950002046FEF7BFFB38BD08B5FFF721F808BDAC
:10596000284B1B680722DA650A2283F8642083F833
:10597000652083F8662083F86720052283F8682075
:1059800083F8692083F86A200F2283F86C2083F85B
:105990006D2083F86E2083F86F2083F8702083F8E1
:1059A000712083F87220102283F8742083F8752008
:1059B00083F87620132183F87710112083F878007C
:1059C00083F8792083F87A100022A3F87C20A022A3
:1059D000A3F87E204FF4A072A3F880204FF4F07259
:1059E000A3F8822040F29E22A3F8842040F2F32202
:1059F000A3F8862040F24332A3F8882040F2A23276
:105A00001A667047F0100020124B0022DA811A80CB
:105A10000A221A825A8014225A829A801E229A825C
:105A2000DA802822DA821A812D221A835A813222C0
:105A30005A839A8109229A831322DA831D221A84B7
:105A400027225A842C229A843122DA8436221A851B
:105A5000704700BF00110020062811D8DFE800F0D1
:105A60000A060804120C0E000748704707487047E2
:105A7000074870470748704707487047074870470E
:105A800007487047074870477867000808680008AB
:105A90005C680008A8680008F4680008406900080D
:105AA00094690008C0670008002393420AD210B42A
:105AB000CC5CC454CC5C14B101339342F8D35DF890
:105AC000044B70477047000008B5054B9B680BB14D
:105AD00000221A63024B1B6803B1984708BD00BF40
